{
  "contractName": "SurveyReward",
  "abi": [
    {
      "constant": true,
      "inputs": [],
      "name": "name",
      "outputs": [
        {
          "name": "",
          "type": "string"
        }
      ],
      "payable": false,
      "stateMutability": "view",
      "type": "function"
    },
    {
      "constant": true,
      "inputs": [
        {
          "name": "",
          "type": "uint256"
        }
      ],
      "name": "surveys",
      "outputs": [
        {
          "name": "title",
          "type": "string"
        },
        {
          "name": "conductor",
          "type": "address"
        },
        {
          "name": "questionCount",
          "type": "uint256"
        },
        {
          "name": "open",
          "type": "bool"
        }
      ],
      "payable": false,
      "stateMutability": "view",
      "type": "function"
    },
    {
      "constant": true,
      "inputs": [],
      "name": "surveyCount",
      "outputs": [
        {
          "name": "",
          "type": "uint256"
        }
      ],
      "payable": false,
      "stateMutability": "view",
      "type": "function"
    },
    {
      "inputs": [],
      "payable": false,
      "stateMutability": "nonpayable",
      "type": "constructor"
    },
    {
      "anonymous": false,
      "inputs": [
        {
          "indexed": false,
          "name": "title",
          "type": "string"
        },
        {
          "indexed": false,
          "name": "conductor",
          "type": "address"
        },
        {
          "indexed": false,
          "name": "questionCount",
          "type": "uint256"
        },
        {
          "indexed": false,
          "name": "open",
          "type": "bool"
        }
      ],
      "name": "SurveyCreation",
      "type": "event"
    },
    {
      "anonymous": false,
      "inputs": [
        {
          "indexed": false,
          "name": "text",
          "type": "bytes32"
        },
        {
          "indexed": false,
          "name": "answerCount",
          "type": "uint256"
        },
        {
          "indexed": false,
          "name": "surveyid",
          "type": "uint256"
        },
        {
          "indexed": false,
          "name": "questionCount",
          "type": "uint256"
        }
      ],
      "name": "QuestionAdditionToSurvey",
      "type": "event"
    },
    {
      "anonymous": false,
      "inputs": [
        {
          "indexed": false,
          "name": "surveyid",
          "type": "uint256"
        },
        {
          "indexed": false,
          "name": "questionid",
          "type": "uint256"
        },
        {
          "indexed": false,
          "name": "participant",
          "type": "address"
        },
        {
          "indexed": false,
          "name": "answer",
          "type": "bytes32"
        }
      ],
      "name": "QuestionAnswered",
      "type": "event"
    },
    {
      "constant": false,
      "inputs": [
        {
          "name": "_title",
          "type": "string"
        }
      ],
      "name": "createSurvey",
      "outputs": [],
      "payable": false,
      "stateMutability": "nonpayable",
      "type": "function"
    },
    {
      "constant": false,
      "inputs": [
        {
          "name": "questions",
          "type": "bytes32[]"
        },
        {
          "name": "_surveyid",
          "type": "uint256"
        }
      ],
      "name": "appendQuestions",
      "outputs": [],
      "payable": false,
      "stateMutability": "nonpayable",
      "type": "function"
    },
    {
      "constant": true,
      "inputs": [
        {
          "name": "_surveyid",
          "type": "uint256"
        },
        {
          "name": "_questionid",
          "type": "uint256"
        }
      ],
      "name": "getQuestionFromSurvey",
      "outputs": [
        {
          "name": "",
          "type": "bytes32"
        }
      ],
      "payable": false,
      "stateMutability": "view",
      "type": "function"
    },
    {
      "constant": true,
      "inputs": [
        {
          "name": "_surveyid",
          "type": "uint256"
        },
        {
          "name": "_questionid",
          "type": "uint256"
        }
      ],
      "name": "getAnswers",
      "outputs": [
        {
          "name": "",
          "type": "bytes32[]"
        }
      ],
      "payable": false,
      "stateMutability": "view",
      "type": "function"
    },
    {
      "constant": false,
      "inputs": [
        {
          "name": "_surveyid",
          "type": "uint256"
        },
        {
          "name": "_questionid",
          "type": "uint256"
        },
        {
          "name": "_answer",
          "type": "bytes32"
        }
      ],
      "name": "answerQuestion",
      "outputs": [],
      "payable": false,
      "stateMutability": "nonpayable",
      "type": "function"
    }
  ],
  "bytecode": "0x608060405260006001553480156200001657600080fd5b506040805190810160405280601781526020017f53757276657920526577617264696e672053797374656d00000000000000000081525060029080519060200190620000649291906200006b565b506200011a565b828054600181600116156101000203166002900490600052602060002090601f016020900481019282601f10620000ae57805160ff1916838001178555620000df565b82800160010185558215620000df579182015b82811115620000de578251825591602001919060010190620000c1565b5b509050620000ee9190620000f2565b5090565b6200011791905b8082111562000113576000816000905550600101620000f9565b5090565b90565b61163d806200012a6000396000f3fe60806040526004361061008e576000357c0100000000000000000000000000000000000000000000000000000000900463ffffffff16806306fdde0314610093578063396ab591146101235780636e48c7fd146101eb57806386e68b90146102ba5780638f0fff3d146103b3578063c1a3eb121461044d578063c797b31e146104a6578063e804f4c0146104f5575b600080fd5b34801561009f57600080fd5b506100a8610520565b6040518080602001828103825283818151815260200191508051906020019080838360005b838110156100e85780820151818401526020810190506100cd565b50505050905090810190601f1680156101155780820380516001836020036101000a031916815260200191505b509250505060405180910390f35b34801561012f57600080fd5b506101e96004803603602081101561014657600080fd5b810190808035906020019064010000000081111561016357600080fd5b82018360208201111561017557600080fd5b8035906020019184600183028401116401000000008311171561019757600080fd5b91908080601f016020809104026020016040519081016040528093929190818152602001838380828437600081840152601f19601f8201169050808301925050505050505091929192905050506105be565b005b3480156101f757600080fd5b506102b86004803603604081101561020e57600080fd5b810190808035906020019064010000000081111561022b57600080fd5b82018360208201111561023d57600080fd5b8035906020019184602083028401116401000000008311171561025f57600080fd5b919080806020026020016040519081016040528093929190818152602001838360200280828437600081840152601f19601f82011690508083019250505050505050919291929080359060200190929190505050610814565b005b3480156102c657600080fd5b506102f3600480360360208110156102dd57600080fd5b81019080803590602001909291905050506109d7565b60405180806020018573ffffffffffffffffffffffffffffffffffffffff1673ffffffffffffffffffffffffffffffffffffffff16815260200184815260200183151515158152602001828103825286818151815260200191508051906020019080838360005b8381101561037557808201518184015260208101905061035a565b50505050905090810190601f1680156103a25780820380516001836020036101000a031916815260200191505b509550505050505060405180910390f35b3480156103bf57600080fd5b506103f6600480360360408110156103d657600080fd5b810190808035906020019092919080359060200190929190505050610acc565b6040518080602001828103825283818151815260200191508051906020019060200280838360005b8381101561043957808201518184015260208101905061041e565b505050509050019250505060405180910390f35b34801561045957600080fd5b506104906004803603604081101561047057600080fd5b810190808035906020019092919080359060200190929190505050610da9565b6040518082815260200191505060405180910390f35b3480156104b257600080fd5b506104f3600480360360608110156104c957600080fd5b81019080803590602001909291908035906020019092919080359060200190929190505050610ef4565b005b34801561050157600080fd5b5061050a61131c565b6040518082815260200191505060405180910390f35b60028054600181600116156101000203166002900480601f0160208091040260200160405190810160405280929190818152602001828054600181600116156101000203166002900480156105b65780601f1061058b576101008083540402835291602001916105b6565b820191906000526020600020905b81548152906001019060200180831161059957829003601f168201915b505050505081565b6000815114151515610638576040517f08c379a000000000000000000000000000000000000000000000000000000000815260040180806020018281038252601d8152602001807f537572766579207469746c652063616e206e6f7420626520656d70747900000081525060200191505060405180910390fd5b6080604051908101604052808281526020013373ffffffffffffffffffffffffffffffffffffffff1681526020016000815260200160011515815250600080600154815260200190815260200160002060008201518160000190805190602001906106a49291906114e5565b5060208201518160010160006101000a81548173ffffffffffffffffffffffffffffffffffffffff021916908373ffffffffffffffffffffffffffffffffffffffff1602179055506040820151816002015560608201518160030160006101000a81548160ff0219169083151502179055509050506001600081548092919060010191905055507f21b2310f64cc929690aadabb0bb1a1be1f37d9da8c0a0423a0a664b0ab444efe81336000600160405180806020018573ffffffffffffffffffffffffffffffffffffffff1673ffffffffffffffffffffffffffffffffffffffff16815260200184815260200183151515158152602001828103825286818151815260200191508051906020019080838360005b838110156107d45780820151818401526020810190506107b9565b50505050905090810190601f1680156108015780820380516001836020036101000a031916815260200191505b509550505050505060405180910390a150565b806001548110151561088e576040517f08c379a00000000000000000000000000000000000000000000000000000000081526004018080602001828103825260138152602001807f5375727665792073686f756c642065786973740000000000000000000000000081525060200191505060405180910390fd5b81600080600083815260200190815260200160002090503373ffffffffffffffffffffffffffffffffffffffff168160010160009054906101000a900473ffffffffffffffffffffffffffffffffffffffff1673ffffffffffffffffffffffffffffffffffffffff16141515610992576040517f08c379a000000000000000000000000000000000000000000000000000000000815260040180806020018281038252602a8152602001807f4f6e6c7920636f6e647563746f722063616e2075736520746869732066756e6381526020017f74696f6e616c697479210000000000000000000000000000000000000000000081525060400191505060405180910390fd5b60008090505b85518110156109cf576109c286828151811015156109b257fe5b9060200190602002015186611322565b8080600101915050610998565b505050505050565b6000602052806000526040600020600091509050806000018054600181600116156101000203166002900480601f016020809104026020016040519081016040528092919081815260200182805460018160011615610100020316600290048015610a835780601f10610a5857610100808354040283529160200191610a83565b820191906000526020600020905b815481529060010190602001808311610a6657829003601f168201915b5050505050908060010160009054906101000a900473ffffffffffffffffffffffffffffffffffffffff16908060020154908060030160009054906101000a900460ff16905084565b60608260015481101515610b48576040517f08c379a00000000000000000000000000000000000000000000000000000000081526004018080602001828103825260138152602001807f5375727665792073686f756c642065786973740000000000000000000000000081525060200191505060405180910390fd5b838360008060008481526020019081526020016000209050806002015482101515610bdb576040517f08c379a000000000000000000000000000000000000000000000000000000000815260040180806020018281038252601f8152602001807f5175657374696f6e2073686f756c6420657869737420696e207375727665790081525060200191505060405180910390fd5b86600080600083815260200190815260200160002090503373ffffffffffffffffffffffffffffffffffffffff168160010160009054906101000a900473ffffffffffffffffffffffffffffffffffffffff1673ffffffffffffffffffffffffffffffffffffffff16141515610cdf576040517f08c379a000000000000000000000000000000000000000000000000000000000815260040180806020018281038252602a8152602001807f4f6e6c7920636f6e647563746f722063616e2075736520746869732066756e6381526020017f74696f6e616c697479210000000000000000000000000000000000000000000081525060400191505060405180910390fd5b60008060008b815260200190815260200160002060040160008a81526020019081526020016000209050600081600101549050606081604051908082528060200260200182016040528015610d435781602001602082028038833980820191505090505b50905060008090505b82811115610d9657836002016000828152602001908152602001600020600101548282815181101515610d7b57fe5b90602001906020020181815250508080600101915050610d4c565b5080995050505050505050505092915050565b60008260015481101515610e25576040517f08c379a00000000000000000000000000000000000000000000000000000000081526004018080602001828103825260138152602001807f5375727665792073686f756c642065786973740000000000000000000000000081525060200191505060405180910390fd5b838360008060008481526020019081526020016000209050806002015482101515610eb8576040517f08c379a000000000000000000000000000000000000000000000000000000000815260040180806020018281038252601f8152602001807f5175657374696f6e2073686f756c6420657869737420696e207375727665790081525060200191505060405180910390fd5b60008060008981526020019081526020016000209050806004016000888152602001908152602001600020600001549550505050505092915050565b8260015481101515610f6e576040517f08c379a00000000000000000000000000000000000000000000000000000000081526004018080602001828103825260138152602001807f5375727665792073686f756c642065786973740000000000000000000000000081525060200191505060405180910390fd5b838360008060008481526020019081526020016000209050806002015482101515611001576040517f08c379a000000000000000000000000000000000000000000000000000000000815260040180806020018281038252601f8152602001807f5175657374696f6e2073686f756c6420657869737420696e207375727665790081525060200191505060405180910390fd5b86600080600083815260200190815260200160002090503373ffffffffffffffffffffffffffffffffffffffff168160010160009054906101000a900473ffffffffffffffffffffffffffffffffffffffff1673ffffffffffffffffffffffffffffffffffffffff1614151515611106576040517f08c379a000000000000000000000000000000000000000000000000000000000815260040180806020018281038252602c8152602001807f4f6e6c79207061727469636970616e74732063616e207573652074686973206681526020017f756e6374696f6e616c697479000000000000000000000000000000000000000081525060400191505060405180910390fd5b60008060008b8152602001908152602001600020905060008160040160008b8152602001908152602001600020905060408051908101604052803373ffffffffffffffffffffffffffffffffffffffff1681526020018a8152508160020160008360010154815260200190815260200160002060008201518160000160006101000a81548173ffffffffffffffffffffffffffffffffffffffff021916908373ffffffffffffffffffffffffffffffffffffffff160217905550602082015181600101559050508060010160008154809291906001019190505550808260040160008c815260200190815260200160002060008201548160000155600182015481600101559050507f39eaf6a8fec99688e37c31d0b4488731f43404e83c7b286e5d2717d4bac2c1358b8b8460040160008e815260200190815260200160002060020160006001866001015403815260200190815260200160002060000160009054906101000a900473ffffffffffffffffffffffffffffffffffffffff168560040160008f815260200190815260200160002060020160006001876001015403815260200190815260200160002060010154604051808581526020018481526020018373ffffffffffffffffffffffffffffffffffffffff1673ffffffffffffffffffffffffffffffffffffffff16815260200182815260200194505050505060405180910390a15050505050505050505050565b60015481565b6000806000838152602001908152602001600020905060408051908101604052808481526020016000815250816004016000836002015481526020019081526020016000206000820151816000015560208201518160010155905050806002016000815480929190600101919050555080600080848152602001908152602001600020600082018160000190805460018160011615610100020316600290046113cc929190611565565b506001820160009054906101000a900473ffffffffffffffffffffffffffffffffffffffff168160010160006101000a81548173ffffffffffffffffffffffffffffffffffffffff021916908373ffffffffffffffffffffffffffffffffffffffff160217905550600282015481600201556003820160009054906101000a900460ff168160030160006101000a81548160ff0219169083151502179055509050507fd19d6c190f34df0b3e30c6c2b2acd40da46e6e43ee33ed45dea9ae31af9fb1a28382600401600060018560020154038152602001908152602001600020600101548484600201546040518085815260200184815260200183815260200182815260200194505050505060405180910390a1505050565b828054600181600116156101000203166002900490600052602060002090601f016020900481019282601f1061152657805160ff1916838001178555611554565b82800160010185558215611554579182015b82811115611553578251825591602001919060010190611538565b5b50905061156191906115ec565b5090565b828054600181600116156101000203166002900490600052602060002090601f016020900481019282601f1061159e57805485556115db565b828001600101855582156115db57600052602060002091601f016020900482015b828111156115da5782548255916001019190600101906115bf565b5b5090506115e891906115ec565b5090565b61160e91905b8082111561160a5760008160009055506001016115f2565b5090565b9056fea165627a7a72305820a8d9ff9503269a46ddd5660bf93a3cbde985545729010b2b951030f3b704470b0029",
  "source": "pragma solidity ^0.5.0;\r\n\r\ncontract SurveyReward {\r\n    mapping(uint256 => Survey) public surveys;\r\n    uint256 public surveyCount = 0;\r\n    string public name;\r\n\r\n    struct Survey {\r\n        string title;\r\n        address payable conductor;\r\n        uint256 questionCount;\r\n        bool open;\r\n        mapping(uint256 => Question) questions;\r\n    }\r\n\r\n    event SurveyCreation(\r\n        string title,\r\n        address payable conductor,\r\n        uint256 questionCount,\r\n        bool open\r\n    );\r\n\r\n    struct Question {\r\n        bytes32 text;\r\n        uint256 answerCount;\r\n        mapping(uint256 => Answer) answers;\r\n    }\r\n\r\n    struct Answer {\r\n        address payable participant;\r\n        bytes32 text;\r\n    }    \r\n\r\n    event QuestionAdditionToSurvey(\r\n        bytes32 text,\r\n        uint256 answerCount,\r\n        uint256 surveyid,\r\n        uint256 questionCount\r\n    );\r\n\r\n    event QuestionAnswered(\r\n        uint256 surveyid,\r\n        uint256 questionid,\r\n        address participant,\r\n        bytes32 answer\r\n    );\r\n\r\n    constructor() public {\r\n        name = \"Survey Rewarding System\";\r\n    }\r\n\r\n    modifier surveyExists(uint256 _surveyid){\r\n        require(_surveyid < surveyCount, \"Survey should exist\");\r\n        _;        \r\n    }\r\n\r\n    modifier questionExists(uint256 _surveyid, uint256 _questionid){\r\n        Survey storage _survey = surveys[_surveyid];\r\n        require(_questionid < _survey.questionCount,\"Question should exist in survey\");\r\n        _;\r\n    }\r\n\r\n    modifier conductorOnly(uint256 _surveyid){\r\n        Survey storage _survey = surveys[_surveyid];\r\n        require(_survey.conductor == msg.sender,\"Only conductor can use this functionality!\");\r\n        _;\r\n    }\r\n\r\n    modifier participantOnly(uint256 _surveyid){\r\n        Survey storage _survey = surveys[_surveyid];\r\n        require(_survey.conductor != msg.sender,\"Only participants can use this functionality\");\r\n        _;\r\n    }\r\n\r\n    function createSurvey(string memory _title) public {\r\n        require(bytes(_title).length != 0, \"Survey title can not be empty\");\r\n\r\n        surveys[surveyCount] = Survey(_title, msg.sender, 0, true);\r\n        surveyCount++;\r\n        emit SurveyCreation(_title, msg.sender, 0, true);\r\n    }\r\n\r\n    function createQuestion(bytes32 _text, uint256 _surveyid) private\r\n    {\r\n        Survey storage _survey = surveys[_surveyid];\r\n        _survey.questions[_survey.questionCount] = Question(_text, 0);\r\n        _survey.questionCount++;\r\n        surveys[_surveyid] = _survey;\r\n        emit QuestionAdditionToSurvey(\r\n            _text,\r\n            _survey.questions[_survey.questionCount - 1].answerCount,\r\n            _surveyid,\r\n            _survey.questionCount\r\n        );\r\n    }\r\n\r\n    function appendQuestions(bytes32[] memory questions, uint256 _surveyid) surveyExists(_surveyid) conductorOnly(_surveyid) public{\r\n        for(uint i = 0; i < questions.length ; i++){\r\n            createQuestion(questions[i], _surveyid);\r\n        }\r\n    }\r\n\r\n    function getQuestionFromSurvey(uint256 _surveyid, uint256 _questionid) public view \r\n    surveyExists(_surveyid) \r\n    questionExists(_surveyid,_questionid) \r\n    returns(bytes32){\r\n        Survey storage _survey = surveys[_surveyid];\r\n        return _survey.questions[_questionid].text;\r\n    }\r\n\r\n    function getAnswers(uint256 _surveyid, uint256 _questionid) public view surveyExists(_surveyid) \r\n    questionExists(_surveyid, _questionid) \r\n    conductorOnly(_surveyid) returns(bytes32[] memory) {\r\n        Question storage _question = surveys[_surveyid].questions[_questionid];\r\n        uint256 _answerCount = _question.answerCount;\r\n        bytes32[] memory _answers = new bytes32[](_answerCount);\r\n        for(uint i = 0 ; i > _answerCount ; i++){\r\n            _answers[i] = _question.answers[i].text;\r\n        }\r\n        return _answers;\r\n    }\r\n\r\n    function answerQuestion(uint256 _surveyid, uint256 _questionid, bytes32 _answer) public \r\n    surveyExists(_surveyid) \r\n    questionExists(_surveyid,_questionid) \r\n    participantOnly(_surveyid){\r\n\r\n        Survey storage _survey = surveys[_surveyid];\r\n        Question storage _question = _survey.questions[_questionid];\r\n        _question.answers[_question.answerCount] = Answer(msg.sender,_answer);\r\n        _question.answerCount++;\r\n        _survey.questions[_questionid] = _question;\r\n\r\n        emit QuestionAnswered(_surveyid, _questionid, \r\n        _survey.questions[_questionid].answers[_question.answerCount - 1].participant, \r\n        _survey.questions[_questionid].answers[_question.answerCount - 1].text);\r\n    }\r\n}\r\n",
  "sourcePath": "C:/Users/canbe/Desktop/Canberk/CAREER/survey_reward/src/contracts/SurveyReward.sol",
  "compiler": {
    "name": "solc",
    "version": "0.5.0+commit.1d4f565a.Emscripten.clang"
  },
  "schemaVersion": "3.0.1",
  "updatedAt": "2021-05-02T13:42:38.896Z",
  "devdoc": {
    "methods": {}
  },
  "userdoc": {
    "methods": {}
  }
}