{
  "contractName": "SurveyReward",
  "abi": [
    {
      "constant": true,
      "inputs": [],
      "name": "name",
      "outputs": [
        {
          "name": "",
          "type": "string"
        }
      ],
      "payable": false,
      "stateMutability": "view",
      "type": "function"
    },
    {
      "constant": true,
      "inputs": [
        {
          "name": "",
          "type": "uint256"
        }
      ],
      "name": "surveys",
      "outputs": [
        {
          "name": "title",
          "type": "string"
        },
        {
          "name": "conductor",
          "type": "address"
        },
        {
          "name": "questionCount",
          "type": "uint256"
        },
        {
          "name": "open",
          "type": "bool"
        }
      ],
      "payable": false,
      "stateMutability": "view",
      "type": "function"
    },
    {
      "constant": true,
      "inputs": [],
      "name": "surveyCount",
      "outputs": [
        {
          "name": "",
          "type": "uint256"
        }
      ],
      "payable": false,
      "stateMutability": "view",
      "type": "function"
    },
    {
      "inputs": [],
      "payable": false,
      "stateMutability": "nonpayable",
      "type": "constructor"
    },
    {
      "anonymous": false,
      "inputs": [
        {
          "indexed": false,
          "name": "title",
          "type": "string"
        },
        {
          "indexed": false,
          "name": "conductor",
          "type": "address"
        },
        {
          "indexed": false,
          "name": "questionCount",
          "type": "uint256"
        },
        {
          "indexed": false,
          "name": "open",
          "type": "bool"
        }
      ],
      "name": "SurveyCreation",
      "type": "event"
    },
    {
      "anonymous": false,
      "inputs": [
        {
          "indexed": false,
          "name": "text",
          "type": "string"
        },
        {
          "indexed": false,
          "name": "answerCount",
          "type": "uint256"
        },
        {
          "indexed": false,
          "name": "surveyid",
          "type": "uint256"
        },
        {
          "indexed": false,
          "name": "questionCount",
          "type": "uint256"
        }
      ],
      "name": "QuestionAdditionToSurvey",
      "type": "event"
    },
    {
      "constant": false,
      "inputs": [
        {
          "name": "_title",
          "type": "string"
        }
      ],
      "name": "createSurvey",
      "outputs": [],
      "payable": false,
      "stateMutability": "nonpayable",
      "type": "function"
    },
    {
      "constant": false,
      "inputs": [
        {
          "name": "_text",
          "type": "string"
        },
        {
          "name": "_surveyid",
          "type": "uint256"
        }
      ],
      "name": "createQuestionToSurvey",
      "outputs": [],
      "payable": false,
      "stateMutability": "nonpayable",
      "type": "function"
    }
  ],
  "bytecode": "0x6080604052600060015534801561001557600080fd5b506040805190810160405280601781526020017f53757276657920526577617264696e672053797374656d00000000000000000081525060029080519060200190610061929190610067565b5061010c565b828054600181600116156101000203166002900490600052602060002090601f016020900481019282601f106100a857805160ff19168380011785556100d6565b828001600101855582156100d6579182015b828111156100d55782518255916020019190600101906100ba565b5b5090506100e391906100e7565b5090565b61010991905b808211156101055760008160009055506001016100ed565b5090565b90565b610d228061011b6000396000f3fe60806040526004361061006d576000357c0100000000000000000000000000000000000000000000000000000000900463ffffffff16806306fdde0314610072578063396ab591146101025780635a01005d146101ca57806386e68b901461029c578063e804f4c014610395575b600080fd5b34801561007e57600080fd5b506100876103c0565b6040518080602001828103825283818151815260200191508051906020019080838360005b838110156100c75780820151818401526020810190506100ac565b50505050905090810190601f1680156100f45780820380516001836020036101000a031916815260200191505b509250505060405180910390f35b34801561010e57600080fd5b506101c86004803603602081101561012557600080fd5b810190808035906020019064010000000081111561014257600080fd5b82018360208201111561015457600080fd5b8035906020019184600183028401116401000000008311171561017657600080fd5b91908080601f016020809104026020016040519081016040528093929190818152602001838380828437600081840152601f19601f82011690508083019250505050505050919291929050505061045e565b005b3480156101d657600080fd5b5061029a600480360360408110156101ed57600080fd5b810190808035906020019064010000000081111561020a57600080fd5b82018360208201111561021c57600080fd5b8035906020019184600183028401116401000000008311171561023e57600080fd5b91908080601f016020809104026020016040519081016040528093929190818152602001838380828437600081840152601f19601f820116905080830192505050505050509192919290803590602001909291905050506106b4565b005b3480156102a857600080fd5b506102d5600480360360208110156102bf57600080fd5b8101908080359060200190929190505050610acf565b60405180806020018573ffffffffffffffffffffffffffffffffffffffff1673ffffffffffffffffffffffffffffffffffffffff16815260200184815260200183151515158152602001828103825286818151815260200191508051906020019080838360005b8381101561035757808201518184015260208101905061033c565b50505050905090810190601f1680156103845780820380516001836020036101000a031916815260200191505b509550505050505060405180910390f35b3480156103a157600080fd5b506103aa610bc4565b6040518082815260200191505060405180910390f35b60028054600181600116156101000203166002900480601f0160208091040260200160405190810160405280929190818152602001828054600181600116156101000203166002900480156104565780601f1061042b57610100808354040283529160200191610456565b820191906000526020600020905b81548152906001019060200180831161043957829003601f168201915b505050505081565b60008151141515156104d8576040517f08c379a000000000000000000000000000000000000000000000000000000000815260040180806020018281038252601d8152602001807f537572766579207469746c652063616e206e6f7420626520656d70747900000081525060200191505060405180910390fd5b6080604051908101604052808281526020013373ffffffffffffffffffffffffffffffffffffffff168152602001600081526020016001151581525060008060015481526020019081526020016000206000820151816000019080519060200190610544929190610bca565b5060208201518160010160006101000a81548173ffffffffffffffffffffffffffffffffffffffff021916908373ffffffffffffffffffffffffffffffffffffffff1602179055506040820151816002015560608201518160030160006101000a81548160ff0219169083151502179055509050506001600081548092919060010191905055507f21b2310f64cc929690aadabb0bb1a1be1f37d9da8c0a0423a0a664b0ab444efe81336000600160405180806020018573ffffffffffffffffffffffffffffffffffffffff1673ffffffffffffffffffffffffffffffffffffffff16815260200184815260200183151515158152602001828103825286818151815260200191508051906020019080838360005b83811015610674578082015181840152602081019050610659565b50505050905090810190601f1680156106a15780820380516001836020036101000a031916815260200191505b509550505050505060405180910390a150565b600082511415151561072e576040517f08c379a000000000000000000000000000000000000000000000000000000000815260040180806020018281038252601e8152602001807f5175657374696f6e20746578742063616e206e6f7420626520656d707479000081525060200191505060405180910390fd5b600154811015156107a7576040517f08c379a00000000000000000000000000000000000000000000000000000000081526004018080602001828103825260138152602001807f5375727665792073686f756c642065786973740000000000000000000000000081525060200191505060405180910390fd5b600080600083815260200190815260200160002090503373ffffffffffffffffffffffffffffffffffffffff168160010160009054906101000a900473ffffffffffffffffffffffffffffffffffffffff1673ffffffffffffffffffffffffffffffffffffffff161415156108aa576040517f08c379a00000000000000000000000000000000000000000000000000000000081526004018080602001828103825260238152602001807f4f6e6c7920737572766579206f776e65722063616e206164642071756573746981526020017f6f6e73000000000000000000000000000000000000000000000000000000000081525060400191505060405180910390fd5b604080519081016040528084815260200160008152508160040160008360020154815260200190815260200160002060008201518160000190805190602001906108f5929190610bca565b506020820151816001015590505080600201600081548092919060010191905055508060008084815260200190815260200160002060008201816000019080546001816001161561010002031660029004610951929190610c4a565b506001820160009054906101000a900473ffffffffffffffffffffffffffffffffffffffff168160010160006101000a81548173ffffffffffffffffffffffffffffffffffffffff021916908373ffffffffffffffffffffffffffffffffffffffff160217905550600282015481600201556003820160009054906101000a900460ff168160030160006101000a81548160ff0219169083151502179055509050507f80547e39ed0a9940978a0713741ee486239dff0f2632164fd3d06505a1794bea8382600401600060018560020154038152602001908152602001600020600101548484600201546040518080602001858152602001848152602001838152602001828103825286818151815260200191508051906020019080838360005b83811015610a8d578082015181840152602081019050610a72565b50505050905090810190601f168015610aba5780820380516001836020036101000a031916815260200191505b509550505050505060405180910390a1505050565b6000602052806000526040600020600091509050806000018054600181600116156101000203166002900480601f016020809104026020016040519081016040528092919081815260200182805460018160011615610100020316600290048015610b7b5780601f10610b5057610100808354040283529160200191610b7b565b820191906000526020600020905b815481529060010190602001808311610b5e57829003601f168201915b5050505050908060010160009054906101000a900473ffffffffffffffffffffffffffffffffffffffff16908060020154908060030160009054906101000a900460ff16905084565b60015481565b828054600181600116156101000203166002900490600052602060002090601f016020900481019282601f10610c0b57805160ff1916838001178555610c39565b82800160010185558215610c39579182015b82811115610c38578251825591602001919060010190610c1d565b5b509050610c469190610cd1565b5090565b828054600181600116156101000203166002900490600052602060002090601f016020900481019282601f10610c835780548555610cc0565b82800160010185558215610cc057600052602060002091601f016020900482015b82811115610cbf578254825591600101919060010190610ca4565b5b509050610ccd9190610cd1565b5090565b610cf391905b80821115610cef576000816000905550600101610cd7565b5090565b9056fea165627a7a723058207506de21d5d86f76335418310f19b55f80676e96f6df25c22d50f4a4b0421f8c0029",
  "source": "pragma solidity ^0.5.0;\r\n\r\ncontract SurveyReward {\r\n    mapping(uint256 => Survey) public surveys;\r\n    uint256 public surveyCount = 0;\r\n    string public name;\r\n\r\n    struct Survey {\r\n        string title;\r\n        address payable conductor;\r\n        uint256 questionCount;\r\n        bool open;\r\n        mapping(uint256 => Question) questions;\r\n    }\r\n\r\n    event SurveyCreation(\r\n        string title,\r\n        address payable conductor,\r\n        uint256 questionCount,\r\n        bool open\r\n    );\r\n\r\n    struct Question {\r\n        string text;\r\n        uint256 answerCount;\r\n        mapping(uint256 => Answer) answers;\r\n    }\r\n\r\n    event QuestionAdditionToSurvey(\r\n        string text,\r\n        uint256 answerCount,\r\n        uint256 surveyid,\r\n        uint256 questionCount\r\n    );\r\n\r\n    struct Answer {\r\n        address payable participant;\r\n        string text;\r\n    }\r\n\r\n    constructor() public {\r\n        name = \"Survey Rewarding System\";\r\n    }\r\n\r\n    function createSurvey(string memory _title) public {\r\n        require(bytes(_title).length != 0, \"Survey title can not be empty\");\r\n\r\n        surveys[surveyCount] = Survey(_title, msg.sender, 0, true);\r\n        surveyCount++;\r\n        emit SurveyCreation(_title, msg.sender, 0, true);\r\n    }\r\n\r\n    function createQuestionToSurvey(string memory _text, uint256 _surveyid)\r\n        public\r\n    {\r\n        require(bytes(_text).length != 0, \"Question text can not be empty\");\r\n        require(_surveyid < surveyCount, \"Survey should exist\");\r\n        Survey storage _survey = surveys[_surveyid];\r\n        require(\r\n            _survey.conductor == msg.sender,\r\n            \"Only survey owner can add questions\"\r\n        );\r\n        _survey.questions[_survey.questionCount] = Question(_text, 0);\r\n        _survey.questionCount++;\r\n        surveys[_surveyid] = _survey;\r\n        emit QuestionAdditionToSurvey(\r\n            _text,\r\n            _survey.questions[_survey.questionCount - 1].answerCount,\r\n            _surveyid,\r\n            _survey.questionCount\r\n        );\r\n    }\r\n}\r\n",
  "sourcePath": "C:/Users/canbe/Desktop/Canberk/CAREER/survey_reward/src/contracts/SurveyReward.sol",
  "compiler": {
    "name": "solc",
    "version": "0.5.0+commit.1d4f565a.Emscripten.clang"
  },
  "schemaVersion": "3.0.1",
  "updatedAt": "2021-04-29T08:53:45.220Z",
  "devdoc": {
    "methods": {}
  },
  "userdoc": {
    "methods": {}
  }
}