{
  "contractName": "SurveyReward",
  "abi": [
    {
      "constant": true,
      "inputs": [],
      "name": "name",
      "outputs": [
        {
          "name": "",
          "type": "string"
        }
      ],
      "payable": false,
      "stateMutability": "view",
      "type": "function",
      "signature": "0x06fdde03"
    },
    {
      "constant": true,
      "inputs": [
        {
          "name": "",
          "type": "uint256"
        }
      ],
      "name": "surveys",
      "outputs": [
        {
          "name": "title",
          "type": "string"
        },
        {
          "name": "conductor",
          "type": "address"
        },
        {
          "name": "questionCount",
          "type": "uint256"
        },
        {
          "name": "open",
          "type": "bool"
        },
        {
          "name": "reward",
          "type": "uint256"
        },
        {
          "name": "balance",
          "type": "uint256"
        },
        {
          "name": "description",
          "type": "string"
        }
      ],
      "payable": false,
      "stateMutability": "view",
      "type": "function",
      "signature": "0x86e68b90"
    },
    {
      "constant": true,
      "inputs": [],
      "name": "surveyCount",
      "outputs": [
        {
          "name": "",
          "type": "uint256"
        }
      ],
      "payable": false,
      "stateMutability": "view",
      "type": "function",
      "signature": "0xe804f4c0"
    },
    {
      "inputs": [],
      "payable": false,
      "stateMutability": "nonpayable",
      "type": "constructor",
      "signature": "constructor"
    },
    {
      "anonymous": false,
      "inputs": [
        {
          "indexed": false,
          "name": "title",
          "type": "string"
        },
        {
          "indexed": false,
          "name": "conductor",
          "type": "address"
        },
        {
          "indexed": false,
          "name": "questionCount",
          "type": "uint256"
        },
        {
          "indexed": false,
          "name": "open",
          "type": "bool"
        },
        {
          "indexed": false,
          "name": "reward",
          "type": "uint256"
        },
        {
          "indexed": false,
          "name": "balance",
          "type": "uint256"
        },
        {
          "indexed": false,
          "name": "description",
          "type": "string"
        }
      ],
      "name": "SurveyCreation",
      "type": "event",
      "signature": "0xee85475c09e77f9e2e0d504dab871a9c9190cf5862f4e9d717d9a5bbf3475db3"
    },
    {
      "anonymous": false,
      "inputs": [
        {
          "indexed": false,
          "name": "text",
          "type": "bytes32"
        },
        {
          "indexed": false,
          "name": "answerCount",
          "type": "uint256"
        },
        {
          "indexed": false,
          "name": "surveyid",
          "type": "uint256"
        },
        {
          "indexed": false,
          "name": "questionCount",
          "type": "uint256"
        }
      ],
      "name": "QuestionAdditionToSurvey",
      "type": "event",
      "signature": "0xd19d6c190f34df0b3e30c6c2b2acd40da46e6e43ee33ed45dea9ae31af9fb1a2"
    },
    {
      "anonymous": false,
      "inputs": [
        {
          "indexed": false,
          "name": "surveyid",
          "type": "uint256"
        },
        {
          "indexed": false,
          "name": "open",
          "type": "bool"
        },
        {
          "indexed": false,
          "name": "questionid",
          "type": "uint256"
        },
        {
          "indexed": false,
          "name": "participant",
          "type": "address"
        },
        {
          "indexed": false,
          "name": "answer",
          "type": "bytes32"
        }
      ],
      "name": "QuestionAnswered",
      "type": "event",
      "signature": "0x8aa2c645bf506856a79117408dbfc71d424f09eac568c8be4743f7e72ba2dc90"
    },
    {
      "anonymous": false,
      "inputs": [
        {
          "indexed": false,
          "name": "surveyid",
          "type": "uint256"
        },
        {
          "indexed": false,
          "name": "open",
          "type": "bool"
        }
      ],
      "name": "CloseSurvey",
      "type": "event",
      "signature": "0x5c98c563c156afb260a135bef89654797a180f5d7baba068ae602d6d2428ae6b"
    },
    {
      "constant": false,
      "inputs": [
        {
          "name": "_title",
          "type": "string"
        },
        {
          "name": "_reward",
          "type": "uint256"
        },
        {
          "name": "_description",
          "type": "string"
        },
        {
          "name": "questions",
          "type": "bytes32[]"
        }
      ],
      "name": "createSurvey",
      "outputs": [],
      "payable": true,
      "stateMutability": "payable",
      "type": "function",
      "signature": "0x1dfa728f"
    },
    {
      "constant": false,
      "inputs": [
        {
          "name": "_surveyid",
          "type": "uint256"
        }
      ],
      "name": "closeSurvey",
      "outputs": [],
      "payable": false,
      "stateMutability": "nonpayable",
      "type": "function",
      "signature": "0xd8fb49fe"
    },
    {
      "constant": true,
      "inputs": [
        {
          "name": "_surveyid",
          "type": "uint256"
        },
        {
          "name": "_questionid",
          "type": "uint256"
        }
      ],
      "name": "getQuestionFromSurvey",
      "outputs": [
        {
          "name": "",
          "type": "bytes32"
        }
      ],
      "payable": false,
      "stateMutability": "view",
      "type": "function",
      "signature": "0xc1a3eb12"
    },
    {
      "constant": true,
      "inputs": [
        {
          "name": "_surveyid",
          "type": "uint256"
        },
        {
          "name": "_questionid",
          "type": "uint256"
        }
      ],
      "name": "getAnswers",
      "outputs": [
        {
          "name": "",
          "type": "bytes32[]"
        }
      ],
      "payable": false,
      "stateMutability": "view",
      "type": "function",
      "signature": "0x8f0fff3d"
    },
    {
      "constant": false,
      "inputs": [
        {
          "name": "_surveyid",
          "type": "uint256"
        },
        {
          "name": "_questionid",
          "type": "uint256"
        },
        {
          "name": "_answer",
          "type": "bytes32"
        }
      ],
      "name": "answerQuestion",
      "outputs": [],
      "payable": true,
      "stateMutability": "payable",
      "type": "function",
      "signature": "0xc797b31e"
    },
    {
      "constant": true,
      "inputs": [
        {
          "name": "_surveyid",
          "type": "uint256"
        }
      ],
      "name": "getCheckpoint",
      "outputs": [
        {
          "name": "",
          "type": "uint256"
        }
      ],
      "payable": false,
      "stateMutability": "view",
      "type": "function",
      "signature": "0x20fc4881"
    },
    {
      "constant": true,
      "inputs": [
        {
          "name": "_surveyid",
          "type": "uint256"
        }
      ],
      "name": "getAllQuestions",
      "outputs": [
        {
          "name": "",
          "type": "bytes32[]"
        }
      ],
      "payable": false,
      "stateMutability": "view",
      "type": "function",
      "signature": "0xc01471bb"
    }
  ],
  "bytecode": "0x608060405260006001553480156200001657600080fd5b506040805190810160405280601781526020017f53757276657920526577617264696e672053797374656d00000000000000000081525060029080519060200190620000649291906200006b565b506200011a565b828054600181600116156101000203166002900490600052602060002090601f016020900481019282601f10620000ae57805160ff1916838001178555620000df565b82800160010185558215620000df579182015b82811115620000de578251825591602001919060010190620000c1565b5b509050620000ee9190620000f2565b5090565b6200011791905b8082111562000113576000816000905550600101620000f9565b5090565b90565b61273f806200012a6000396000f3fe6080604052600436106100a4576000357c0100000000000000000000000000000000000000000000000000000000900463ffffffff16806306fdde03146100a95780631dfa728f1461013957806320fc48811461032957806386e68b90146103785780638f0fff3d146104eb578063c01471bb14610585578063c1a3eb1214610615578063c797b31e1461066e578063d8fb49fe146106b0578063e804f4c0146106eb575b600080fd5b3480156100b557600080fd5b506100be610716565b6040518080602001828103825283818151815260200191508051906020019080838360005b838110156100fe5780820151818401526020810190506100e3565b50505050905090810190601f16801561012b5780820380516001836020036101000a031916815260200191505b509250505060405180910390f35b6103276004803603608081101561014f57600080fd5b810190808035906020019064010000000081111561016c57600080fd5b82018360208201111561017e57600080fd5b803590602001918460018302840111640100000000831117156101a057600080fd5b91908080601f016020809104026020016040519081016040528093929190818152602001838380828437600081840152601f19601f820116905080830192505050505050509192919290803590602001909291908035906020019064010000000081111561020d57600080fd5b82018360208201111561021f57600080fd5b8035906020019184600183028401116401000000008311171561024157600080fd5b91908080601f016020809104026020016040519081016040528093929190818152602001838380828437600081840152601f19601f820116905080830192505050505050509192919290803590602001906401000000008111156102a457600080fd5b8201836020820111156102b657600080fd5b803590602001918460208302840111640100000000831117156102d857600080fd5b919080806020026020016040519081016040528093929190818152602001838360200280828437600081840152601f19601f8201169050808301925050505050505091929192905050506107b4565b005b34801561033557600080fd5b506103626004803603602081101561034c57600080fd5b8101908080359060200190929190505050610f06565b6040518082815260200191505060405180910390f35b34801561038457600080fd5b506103b16004803603602081101561039b57600080fd5b8101908080359060200190929190505050610fdb565b60405180806020018873ffffffffffffffffffffffffffffffffffffffff1673ffffffffffffffffffffffffffffffffffffffff168152602001878152602001861515151581526020018581526020018481526020018060200183810383528a818151815260200191508051906020019080838360005b83811015610443578082015181840152602081019050610428565b50505050905090810190601f1680156104705780820380516001836020036101000a031916815260200191505b50838103825284818151815260200191508051906020019080838360005b838110156104a957808201518184015260208101905061048e565b50505050905090810190601f1680156104d65780820380516001836020036101000a031916815260200191505b50995050505050505050505060405180910390f35b3480156104f757600080fd5b5061052e6004803603604081101561050e57600080fd5b81019080803590602001909291908035906020019092919050505061117a565b6040518080602001828103825283818151815260200191508051906020019060200280838360005b83811015610571578082015181840152602081019050610556565b505050509050019250505060405180910390f35b34801561059157600080fd5b506105be600480360360208110156105a857600080fd5b8101908080359060200190929190505050611449565b6040518080602001828103825283818151815260200191508051906020019060200280838360005b838110156106015780820151818401526020810190506105e6565b505050509050019250505060405180910390f35b34801561062157600080fd5b506106586004803603604081101561063857600080fd5b810190808035906020019092919080359060200190929190505050611673565b6040518082815260200191505060405180910390f35b6106ae6004803603606081101561068457600080fd5b810190808035906020019092919080359060200190929190803590602001909291905050506118af565b005b3480156106bc57600080fd5b506106e9600480360360208110156106d357600080fd5b8101908080359060200190929190505050612225565b005b3480156106f757600080fd5b506107006125e1565b6040518082815260200191505060405180910390f35b60028054600181600116156101000203166002900480601f0160208091040260200160405190810160405280929190818152602001828054600181600116156101000203166002900480156107ac5780601f10610781576101008083540402835291602001916107ac565b820191906000526020600020905b81548152906001019060200180831161078f57829003601f168201915b505050505081565b600084511415151561082e576040517f08c379a000000000000000000000000000000000000000000000000000000000815260040180806020018281038252601d8152602001807f537572766579207469746c652063616e206e6f7420626520656d70747900000081525060200191505060405180910390fd5b60008251141515156108a8576040517f08c379a000000000000000000000000000000000000000000000000000000000815260040180806020018281038252601d8152602001807f537572766579207469746c652063616e206e6f7420626520656d70747900000081525060200191505060405180910390fd5b823410151515610946576040517f08c379a00000000000000000000000000000000000000000000000000000000081526004018080602001828103825260368152602001807f537572766579206d75737420626520636f6d706c657461626c6520627920617481526020017f206c65617374206f6e65207061727469636970616e740000000000000000000081525060400191505060405180910390fd5b600081511115156109e5576040517f08c379a000000000000000000000000000000000000000000000000000000000815260040180806020018281038252602c8152602001807f4f6e65207175657374696f6e2073686f756c642062652070726573656e74206981526020017f6e2074686520737572766579000000000000000000000000000000000000000081525060400191505060405180910390fd5b60e0604051908101604052808581526020013373ffffffffffffffffffffffffffffffffffffffff168152602001600081526020016001151581526020018481526020013481526020018381525060008060015481526020019081526020016000206000820151816000019080519060200190610a639291906125e7565b5060208201518160010160006101000a81548173ffffffffffffffffffffffffffffffffffffffff021916908373ffffffffffffffffffffffffffffffffffffffff1602179055506040820151816002015560608201518160030160006101000a81548160ff0219169083151502179055506080820151816004015560a0820151816005015560c0820151816006019080519060200190610b059291906125e7565b5090505060008060006001548152602001908152602001600020905060408051908101604052807f4920616d206e6f74207573696e67206120626f74000000000000000000000000815260200160008152508160070160008081526020019081526020016000206000820151816000015560208201518160010155905050806002016000815480929190600101919050555060008090505b8251811015610c245760408051908101604052808483815181101515610bbf57fe5b906020019060200201518152602001600081525082600701600084600201548152602001908152602001600020600082015181600001556020820151816001015590505081600201600081548092919060010191905055508080600101915050610b9d565b5080600080600154815260200190815260200160002060008201816000019080546001816001161561010002031660029004610c61929190612667565b506001820160009054906101000a900473ffffffffffffffffffffffffffffffffffffffff168160010160006101000a81548173ffffffffffffffffffffffffffffffffffffffff021916908373ffffffffffffffffffffffffffffffffffffffff160217905550600282015481600201556003820160009054906101000a900460ff168160030160006101000a81548160ff021916908315150217905550600482015481600401556005820154816005015560068201816006019080546001816001161561010002031660029004610d3b929190612667565b509050506001600081548092919060010191905055507fee85475c09e77f9e2e0d504dab871a9c9190cf5862f4e9d717d9a5bbf3475db3816000013383600201546001856004015486600501548760060160405180806020018873ffffffffffffffffffffffffffffffffffffffff1673ffffffffffffffffffffffffffffffffffffffff168152602001878152602001861515151581526020018581526020018481526020018060200183810383528a818154600181600116156101000203166002900481526020019150805460018160011615610100020316600290048015610e675780601f10610e3c57610100808354040283529160200191610e67565b820191906000526020600020905b815481529060010190602001808311610e4a57829003601f168201915b5050838103825284818154600181600116156101000203166002900481526020019150805460018160011615610100020316600290048015610eea5780601f10610ebf57610100808354040283529160200191610eea565b820191906000526020600020905b815481529060010190602001808311610ecd57829003601f168201915b5050995050505050505050505060405180910390a15050505050565b600060015482101515610f81576040517f08c379a00000000000000000000000000000000000000000000000000000000081526004018080602001828103825260138152602001807f5375727665792073686f756c642065786973740000000000000000000000000081525060200191505060405180910390fd5b60008083815260200190815260200160002060080160003373ffffffffffffffffffffffffffffffffffffffff1673ffffffffffffffffffffffffffffffffffffffff168152602001908152602001600020549050919050565b6000602052806000526040600020600091509050806000018054600181600116156101000203166002900480601f0160208091040260200160405190810160405280929190818152602001828054600181600116156101000203166002900480156110875780601f1061105c57610100808354040283529160200191611087565b820191906000526020600020905b81548152906001019060200180831161106a57829003601f168201915b5050505050908060010160009054906101000a900473ffffffffffffffffffffffffffffffffffffffff16908060020154908060030160009054906101000a900460ff1690806004015490806005015490806006018054600181600116156101000203166002900480601f0160208091040260200160405190810160405280929190818152602001828054600181600116156101000203166002900480156111705780601f1061114557610100808354040283529160200191611170565b820191906000526020600020905b81548152906001019060200180831161115357829003601f168201915b5050505050905087565b60608282600154821015156111f7576040517f08c379a00000000000000000000000000000000000000000000000000000000081526004018080602001828103825260138152602001807f5375727665792073686f756c642065786973740000000000000000000000000081525060200191505060405180910390fd5b6000808381526020019081526020016000206002015481101515611283576040517f08c379a000000000000000000000000000000000000000000000000000000000815260040180806020018281038252601f8152602001807f5175657374696f6e2073686f756c6420657869737420696e207375727665790081525060200191505060405180910390fd5b843373ffffffffffffffffffffffffffffffffffffffff1660008083815260200190815260200160002060010160009054906101000a900473ffffffffffffffffffffffffffffffffffffffff1673ffffffffffffffffffffffffffffffffffffffff16141515611382576040517f08c379a00000000000000000000000000000000000000000000000000000000081526004018080602001828103825260298152602001807f4f6e6c7920636f6e647563746f722063616e2075736520746869732066756e6381526020017f74696f6e616c697479000000000000000000000000000000000000000000000081525060400191505060405180910390fd5b6000806000888152602001908152602001600020600701600087815260200190815260200160002090506000816001015490506060816040519080825280602002602001820160405280156113e65781602001602082028038833980820191505090505b50905060008090505b828110156114395783600201600082815260200190815260200160002060010154828281518110151561141e57fe5b906020019060200201818152505080806001019150506113ef565b5080965050505050505092915050565b6060813373ffffffffffffffffffffffffffffffffffffffff1660008083815260200190815260200160002060010160009054906101000a900473ffffffffffffffffffffffffffffffffffffffff1673ffffffffffffffffffffffffffffffffffffffff1614151561154a576040517f08c379a00000000000000000000000000000000000000000000000000000000081526004018080602001828103825260298152602001807f4f6e6c7920636f6e647563746f722063616e2075736520746869732066756e6381526020017f74696f6e616c697479000000000000000000000000000000000000000000000081525060400191505060405180910390fd5b600154831015156115c3576040517f08c379a00000000000000000000000000000000000000000000000000000000081526004018080602001828103825260138152602001807f5375727665792073686f756c642065786973740000000000000000000000000081525060200191505060405180910390fd5b600080600085815260200190815260200160002090506000816002015490506060816040519080825280602002602001820160405280156116135781602001602082028038833980820191505090505b50905060008090505b828110156116665783600701600082815260200190815260200160002060000154828281518110151561164b57fe5b9060200190602002018181525050808060010191505061161c565b5080945050505050919050565b60008282600154821015156116f0576040517f08c379a00000000000000000000000000000000000000000000000000000000081526004018080602001828103825260138152602001807f5375727665792073686f756c642065786973740000000000000000000000000081525060200191505060405180910390fd5b600080838152602001908152602001600020600201548110151561177c576040517f08c379a000000000000000000000000000000000000000000000000000000000815260040180806020018281038252601f8152602001807f5175657374696f6e2073686f756c6420657869737420696e207375727665790081525060200191505060405180910390fd5b848460008060008481526020019081526020016000209050818160080160003373ffffffffffffffffffffffffffffffffffffffff1673ffffffffffffffffffffffffffffffffffffffff16815260200190815260200160002054141515611872576040517f08c379a000000000000000000000000000000000000000000000000000000000815260040180806020018281038252602b8152602001807f43616e206f6e6c7920616e737765722066726f6d206c6173742071756573746981526020017f6f6e20616e73776572656400000000000000000000000000000000000000000081525060400191505060405180910390fd5b60008060008a8152602001908152602001600020905080600701600089815260200190815260200160002060000154965050505050505092915050565b82826001548210151561192a576040517f08c379a00000000000000000000000000000000000000000000000000000000081526004018080602001828103825260138152602001807f5375727665792073686f756c642065786973740000000000000000000000000081525060200191505060405180910390fd5b6001151560008084815260200190815260200160002060030160009054906101000a900460ff1615151415156119c8576040517f08c379a00000000000000000000000000000000000000000000000000000000081526004018080602001828103825260108152602001807f53757276657920697320636c6f7365640000000000000000000000000000000081525060200191505060405180910390fd5b6000808381526020019081526020016000206002015481101515611a54576040517f08c379a000000000000000000000000000000000000000000000000000000000815260040180806020018281038252601f8152602001807f5175657374696f6e2073686f756c6420657869737420696e207375727665790081525060200191505060405180910390fd5b3373ffffffffffffffffffffffffffffffffffffffff1660008084815260200190815260200160002060010160009054906101000a900473ffffffffffffffffffffffffffffffffffffffff1673ffffffffffffffffffffffffffffffffffffffff1614151515611b53576040517f08c379a000000000000000000000000000000000000000000000000000000000815260040180806020018281038252602c8152602001807f4f6e6c79207061727469636970616e74732063616e207573652074686973206681526020017f756e6374696f6e616c697479000000000000000000000000000000000000000081525060400191505060405180910390fd5b848460008060008481526020019081526020016000209050818160080160003373ffffffffffffffffffffffffffffffffffffffff1673ffffffffffffffffffffffffffffffffffffffff16815260200190815260200160002054141515611c49576040517f08c379a000000000000000000000000000000000000000000000000000000000815260040180806020018281038252602b8152602001807f43616e206f6e6c7920616e737765722066726f6d206c6173742071756573746981526020017f6f6e20616e73776572656400000000000000000000000000000000000000000081525060400191505060405180910390fd5b60008060008a815260200190815260200160002090508060040154816005015410151515611d05576040517f08c379a00000000000000000000000000000000000000000000000000000000081526004018080602001828103825260248152602001807f546869732073757276657920686173206e6f206d6f726520726577617264732081526020017f6c6566740000000000000000000000000000000000000000000000000000000081525060400191505060405180910390fd5b60008160070160008a815260200190815260200160002090506000891415611e1f57806000015488141515611da2576040517f08c379a00000000000000000000000000000000000000000000000000000000081526004018080602001828103825260168152602001807f43617074636861206973206e6f7420636f72726563740000000000000000000081525060200191505060405180910390fd5b60c834141515611e1a576040517f08c379a00000000000000000000000000000000000000000000000000000000081526004018080602001828103825260158152602001807f50726f7669646520696e697469616c207072696365000000000000000000000081525060200191505060405180910390fd5b611eba565b6001826002015403891415611eb9573373ffffffffffffffffffffffffffffffffffffffff166108fc83600401549081150290604051600060405180830381858888f19350505050158015611e78573d6000803e3d6000fd5b508160040154826005015403826005018190555060008260050154111515611eb85760008260030160006101000a81548160ff0219169083151502179055505b5b5b60408051908101604052803373ffffffffffffffffffffffffffffffffffffffff168152602001898152508160020160008360010154815260200190815260200160002060008201518160000160006101000a81548173ffffffffffffffffffffffffffffffffffffffff021916908373ffffffffffffffffffffffffffffffffffffffff160217905550602082015181600101559050508060010160008154809291906001019190505550808260070160008b8152602001908152602001600020600082015481600001556001820154816001015590505060018260080160003373ffffffffffffffffffffffffffffffffffffffff1673ffffffffffffffffffffffffffffffffffffffff16815260200190815260200160002060008282540192505081905550816000808c81526020019081526020016000206000820181600001908054600181600116156101000203166002900461201d929190612667565b506001820160009054906101000a900473ffffffffffffffffffffffffffffffffffffffff168160010160006101000a81548173ffffffffffffffffffffffffffffffffffffffff021916908373ffffffffffffffffffffffffffffffffffffffff160217905550600282015481600201556003820160009054906101000a900460ff168160030160006101000a81548160ff0219169083151502179055506004820154816004015560058201548160050155600682018160060190805460018160011615610100020316600290046120f7929190612667565b509050507f8aa2c645bf506856a79117408dbfc71d424f09eac568c8be4743f7e72ba2dc908a8360030160009054906101000a900460ff168b8560070160008e815260200190815260200160002060020160006001876001015403815260200190815260200160002060000160009054906101000a900473ffffffffffffffffffffffffffffffffffffffff168660070160008f81526020019081526020016000206002016000600188600101540381526020019081526020016000206001015460405180868152602001851515151581526020018481526020018373ffffffffffffffffffffffffffffffffffffffff1673ffffffffffffffffffffffffffffffffffffffff1681526020018281526020019550505050505060405180910390a150505050505050505050565b806001548110151561229f576040517f08c379a00000000000000000000000000000000000000000000000000000000081526004018080602001828103825260138152602001807f5375727665792073686f756c642065786973740000000000000000000000000081525060200191505060405180910390fd5b6001151560008083815260200190815260200160002060030160009054906101000a900460ff16151514151561233d576040517f08c379a00000000000000000000000000000000000000000000000000000000081526004018080602001828103825260108152602001807f53757276657920697320636c6f7365640000000000000000000000000000000081525060200191505060405180910390fd5b813373ffffffffffffffffffffffffffffffffffffffff1660008083815260200190815260200160002060010160009054906101000a900473ffffffffffffffffffffffffffffffffffffffff1673ffffffffffffffffffffffffffffffffffffffff1614151561243c576040517f08c379a00000000000000000000000000000000000000000000000000000000081526004018080602001828103825260298152602001807f4f6e6c7920636f6e647563746f722063616e2075736520746869732066756e6381526020017f74696f6e616c697479000000000000000000000000000000000000000000000081525060400191505060405180910390fd5b6000806000858152602001908152602001600020905060008160030160006101000a81548160ff02191690831515021790555080600080868152602001908152602001600020600082018160000190805460018160011615610100020316600290046124a9929190612667565b506001820160009054906101000a900473ffffffffffffffffffffffffffffffffffffffff168160010160006101000a81548173ffffffffffffffffffffffffffffffffffffffff021916908373ffffffffffffffffffffffffffffffffffffffff160217905550600282015481600201556003820160009054906101000a900460ff168160030160006101000a81548160ff021916908315150217905550600482015481600401556005820154816005015560068201816006019080546001816001161561010002031660029004612583929190612667565b509050507f5c98c563c156afb260a135bef89654797a180f5d7baba068ae602d6d2428ae6b848260030160009054906101000a900460ff1660405180838152602001821515151581526020019250505060405180910390a150505050565b60015481565b828054600181600116156101000203166002900490600052602060002090601f016020900481019282601f1061262857805160ff1916838001178555612656565b82800160010185558215612656579182015b8281111561265557825182559160200191906001019061263a565b5b50905061266391906126ee565b5090565b828054600181600116156101000203166002900490600052602060002090601f016020900481019282601f106126a057805485556126dd565b828001600101855582156126dd57600052602060002091601f016020900482015b828111156126dc5782548255916001019190600101906126c1565b5b5090506126ea91906126ee565b5090565b61271091905b8082111561270c5760008160009055506001016126f4565b5090565b9056fea165627a7a723058202a0cb505b083a8c039902da1d0ac1de7e6f8f9a1a9de6f0f400a4e5fef4551920029",
  "source": "pragma solidity ^0.5.0;\r\n\r\ncontract SurveyReward {\r\n    mapping(uint256 => Survey) public surveys;\r\n    uint256 public surveyCount = 0;\r\n    string public name;\r\n\r\n    struct Survey {\r\n        string title;\r\n        address payable conductor;\r\n        uint256 questionCount;\r\n        bool open;\r\n        uint256 reward;\r\n        uint256 balance;\r\n        string description;\r\n        mapping(uint256 => Question) questions;\r\n        mapping(address => uint256) lastLeft;\r\n    }\r\n\r\n    event SurveyCreation(\r\n        string title,\r\n        address payable conductor,\r\n        uint256 questionCount,\r\n        bool open,\r\n        uint256 reward,\r\n        uint256 balance,\r\n        string description\r\n    );\r\n\r\n    struct Question {\r\n        bytes32 text;\r\n        uint256 answerCount;\r\n        mapping(uint256 => Answer) answers;\r\n    }\r\n\r\n    struct Answer {\r\n        address payable participant;\r\n        bytes32 text;\r\n    }    \r\n\r\n    event QuestionAdditionToSurvey(\r\n        bytes32 text,\r\n        uint256 answerCount,\r\n        uint256 surveyid,\r\n        uint256 questionCount\r\n    );\r\n\r\n    event QuestionAnswered(\r\n        uint256 surveyid,\r\n        bool open,\r\n        uint256 questionid,\r\n        address participant,\r\n        bytes32 answer\r\n    );\r\n\r\n    event CloseSurvey(\r\n        uint256 surveyid,\r\n        bool open\r\n    );\r\n\r\n    constructor() public {\r\n        name = \"Survey Rewarding System\";\r\n    }\r\n\r\n    modifier surveyAvailable(uint256 _surveyid){\r\n        require(_surveyid < surveyCount, \"Survey should exist\");\r\n        require(surveys[_surveyid].open == true,\"Survey is closed\");\r\n        _;        \r\n    }\r\n\r\n    modifier questionAvailable(uint256 _surveyid, uint256 _questionid){\r\n        require(_surveyid < surveyCount, \"Survey should exist\");\r\n        require(_questionid < surveys[_surveyid].questionCount,\"Question should exist in survey\");\r\n        _;\r\n    }\r\n    \r\n    modifier questionAnswarable(uint256 _surveyid, uint256 _questionid){\r\n        require(_surveyid < surveyCount, \"Survey should exist\");\r\n        require(surveys[_surveyid].open == true,\"Survey is closed\");\r\n        require(_questionid < surveys[_surveyid].questionCount,\"Question should exist in survey\");\r\n        require(surveys[_surveyid].conductor != msg.sender,\"Only participants can use this functionality\");\r\n        _;\r\n    }\r\n\r\n    modifier conductorOnly(uint256 _surveyid){\r\n        require(surveys[_surveyid].conductor == msg.sender,\"Only conductor can use this functionality\");\r\n        _;\r\n    }\r\n\r\n    modifier participantOnly(uint256 _surveyid){\r\n        require(surveys[_surveyid].conductor != msg.sender,\"Only participants can use this functionality\");\r\n        _;\r\n    }\r\n\r\n    modifier checkpointSatisfies(uint256 _surveyid,uint256 _questionid){\r\n        Survey storage _survey = surveys[_surveyid];\r\n        require(_survey.lastLeft[msg.sender] == _questionid,\"Can only answer from last question answered\");\r\n        _;\r\n    }\r\n\r\n    // CREATES A SURVEY WITH GIVEN TITLE AND REWARD PARAMS\r\n    // QUESTION 0 IS A CONSTANT CAPTCHA WHICH MUST BE TYPED BY THE PARTICIPANT\r\n    // TO PREVENT BOT ATTACKS\r\n    function createSurvey(string memory _title,uint256 _reward,\r\n    string memory _description,bytes32[] memory questions) \r\n    public payable {\r\n\r\n        require(bytes(_title).length != 0, \"Survey title can not be empty\");\r\n        require(bytes(_description).length != 0, \"Survey title can not be empty\");\r\n        require(msg.value >= _reward,\"Survey must be completable by at least one participant\");\r\n        require(questions.length > 0 ,\"One question should be present in the survey\");\r\n\r\n        surveys[surveyCount] = Survey(_title, msg.sender, 0, true,_reward,msg.value,_description);\r\n        Survey storage _survey = surveys[surveyCount];\r\n        _survey.questions[0] = Question(\"I am not using a bot\",0);\r\n        _survey.questionCount++;\r\n\r\n        for(uint i = 0; i < questions.length ; i++){\r\n            _survey.questions[_survey.questionCount] = Question(questions[i], 0);\r\n            _survey.questionCount++;\r\n        }\r\n\r\n        surveys[surveyCount] = _survey;\r\n        surveyCount++;\r\n        \r\n        emit SurveyCreation(_survey.title, msg.sender, _survey.questionCount , true,_survey.reward,_survey.balance,_survey.description);\r\n    }\r\n\r\n    // CLOSES THE SURVEY\r\n    // REQUIRED: SURVEY SHOULD EXIST\r\n    function closeSurvey(uint256 _surveyid) public \r\n    surveyAvailable(_surveyid)\r\n    conductorOnly(_surveyid){\r\n        Survey storage _survey = surveys[_surveyid];\r\n        _survey.open = false;\r\n        surveys[_surveyid] = _survey;\r\n        emit CloseSurvey(_surveyid, _survey.open);\r\n    }\r\n\r\n    // GETS QUESTION TEXT FROM SURVEY\r\n    // REQUIRED: SURVEY AND QUESTION SHOULD EXIST\r\n    function getQuestionFromSurvey(uint256 _surveyid, uint256 _questionid) public view \r\n    questionAvailable(_surveyid,_questionid)\r\n    checkpointSatisfies(_surveyid,_questionid)\r\n    returns(bytes32){\r\n        Survey storage _survey = surveys[_surveyid];\r\n        return _survey.questions[_questionid].text;\r\n    }\r\n\r\n    // GETS ALL THE ANSWERS TO GIVEN QUESTION\r\n    // REQUIRED: QUESTION SHOULD EXIST AND SENDER MUST BE CONDUCTOR\r\n    function getAnswers(uint256 _surveyid, uint256 _questionid) public view \r\n    questionAvailable(_surveyid,_questionid)\r\n    conductorOnly(_surveyid) returns(bytes32[] memory) {\r\n        Question storage _question = surveys[_surveyid].questions[_questionid];\r\n        uint256 _answerCount = _question.answerCount;\r\n        bytes32[] memory _answers = new bytes32[](_answerCount);\r\n        for(uint i = 0 ; i < _answerCount ; i++){\r\n            _answers[i] = _question.answers[i].text;\r\n        }\r\n        return _answers;\r\n    }\r\n\r\n    // ANSWERS GIVEN QUESTION FROM GIVEN SURVEY\r\n    // REQUIRED: QUESTION AND SURVEY MUST EXIST, SURVEY MUST BE OPEN AND \r\n    // QUESTION ID SHOULD BE EQUAL TO CHECKPOINT OF PARTICIPANT\r\n    // MESSAGE SENDER SHOULD NOT BE THE CONDUCTOR\r\n    function answerQuestion(uint256 _surveyid, uint256 _questionid, bytes32 _answer) public payable\r\n    questionAnswarable(_surveyid,_questionid)\r\n    checkpointSatisfies(_surveyid,_questionid){\r\n\r\n        Survey storage _survey = surveys[_surveyid];\r\n        require(_survey.balance >= _survey.reward,\"This survey has no more rewards left\");\r\n        Question storage _question = _survey.questions[_questionid];\r\n\r\n        if(_questionid == 0){ // QUESTION IS CAPTCHA\r\n            require(_answer == _question.text,\"Captcha is not correct\");\r\n            require(msg.value == 200,\"Provide initial price\");\r\n        }\r\n\r\n        else if(_questionid == _survey.questionCount-1){ // QUESTION IS LAST\r\n            msg.sender.transfer(_survey.reward);\r\n            _survey.balance = _survey.balance - _survey.reward;\r\n            if(_survey.balance <= 0 ) _survey.open = false;\r\n        }\r\n\r\n        // SAVE THE ANSWER\r\n        _question.answers[_question.answerCount] = Answer(msg.sender,_answer);\r\n        _question.answerCount++;\r\n        _survey.questions[_questionid] = _question;\r\n        _survey.lastLeft[msg.sender] += 1;\r\n        surveys[_surveyid] = _survey;\r\n\r\n        emit QuestionAnswered(_surveyid, _survey.open,_questionid, \r\n        _survey.questions[_questionid].answers[_question.answerCount - 1].participant, \r\n        _survey.questions[_questionid].answers[_question.answerCount - 1].text);\r\n    }\r\n\r\n    function getCheckpoint(uint256 _surveyid) public view\r\n    returns(uint256){\r\n        require(_surveyid < surveyCount, \"Survey should exist\");\r\n        return surveys[_surveyid].lastLeft[msg.sender];\r\n    }\r\n\r\n    function getAllQuestions(uint256 _surveyid) public view \r\n    conductorOnly(_surveyid)\r\n    returns(bytes32[] memory) {\r\n        require(_surveyid < surveyCount, \"Survey should exist\");\r\n        Survey storage _survey = surveys[_surveyid];\r\n        uint256 _questionCount = _survey.questionCount;\r\n        bytes32[] memory _questions = new bytes32[](_questionCount);\r\n        for(uint i = 0 ; i < _questionCount ; i++){\r\n            _questions[i] = _survey.questions[i].text;\r\n        }\r\n        return _questions;\r\n    }\r\n}\r\n",
  "sourcePath": "C:/Users/canbe/Desktop/Canberk/CAREER/survey_reward/src/contracts/SurveyReward.sol",
  "compiler": {
    "name": "solc",
    "version": "0.5.0+commit.1d4f565a.Emscripten.clang"
  },
  "schemaVersion": "3.0.1",
  "updatedAt": "2021-05-29T12:42:10.181Z",
  "devdoc": {
    "methods": {}
  },
  "userdoc": {
    "methods": {}
  }
}