{
  "contractName": "SurveyReward",
  "abi": [
    {
      "constant": true,
      "inputs": [],
      "name": "name",
      "outputs": [
        {
          "name": "",
          "type": "string"
        }
      ],
      "payable": false,
      "stateMutability": "view",
      "type": "function"
    },
    {
      "constant": true,
      "inputs": [
        {
          "name": "",
          "type": "uint256"
        }
      ],
      "name": "surveys",
      "outputs": [
        {
          "name": "title",
          "type": "string"
        },
        {
          "name": "conductor",
          "type": "address"
        },
        {
          "name": "questionCount",
          "type": "uint256"
        },
        {
          "name": "open",
          "type": "bool"
        }
      ],
      "payable": false,
      "stateMutability": "view",
      "type": "function"
    },
    {
      "constant": true,
      "inputs": [],
      "name": "surveyCount",
      "outputs": [
        {
          "name": "",
          "type": "uint256"
        }
      ],
      "payable": false,
      "stateMutability": "view",
      "type": "function"
    },
    {
      "inputs": [],
      "payable": false,
      "stateMutability": "nonpayable",
      "type": "constructor"
    },
    {
      "anonymous": false,
      "inputs": [
        {
          "indexed": false,
          "name": "title",
          "type": "string"
        },
        {
          "indexed": false,
          "name": "conductor",
          "type": "address"
        },
        {
          "indexed": false,
          "name": "questionCount",
          "type": "uint256"
        },
        {
          "indexed": false,
          "name": "open",
          "type": "bool"
        }
      ],
      "name": "SurveyCreation",
      "type": "event"
    },
    {
      "anonymous": false,
      "inputs": [
        {
          "indexed": false,
          "name": "text",
          "type": "string"
        },
        {
          "indexed": false,
          "name": "answerCount",
          "type": "uint256"
        },
        {
          "indexed": false,
          "name": "surveyid",
          "type": "uint256"
        },
        {
          "indexed": false,
          "name": "questionCount",
          "type": "uint256"
        }
      ],
      "name": "QuestionAdditionToSurvey",
      "type": "event"
    },
    {
      "anonymous": false,
      "inputs": [
        {
          "indexed": false,
          "name": "surveyid",
          "type": "uint256"
        },
        {
          "indexed": false,
          "name": "questionid",
          "type": "uint256"
        },
        {
          "indexed": false,
          "name": "participant",
          "type": "address"
        },
        {
          "indexed": false,
          "name": "answer",
          "type": "string"
        }
      ],
      "name": "QuestionAnswered",
      "type": "event"
    },
    {
      "constant": false,
      "inputs": [
        {
          "name": "_title",
          "type": "string"
        }
      ],
      "name": "createSurvey",
      "outputs": [],
      "payable": false,
      "stateMutability": "nonpayable",
      "type": "function"
    },
    {
      "constant": false,
      "inputs": [
        {
          "name": "_text",
          "type": "string"
        },
        {
          "name": "_surveyid",
          "type": "uint256"
        }
      ],
      "name": "createQuestionToSurvey",
      "outputs": [],
      "payable": false,
      "stateMutability": "nonpayable",
      "type": "function"
    },
    {
      "constant": true,
      "inputs": [
        {
          "name": "_surveyid",
          "type": "uint256"
        },
        {
          "name": "_questionid",
          "type": "uint256"
        }
      ],
      "name": "getQuestionFromSurvey",
      "outputs": [
        {
          "name": "",
          "type": "string"
        }
      ],
      "payable": false,
      "stateMutability": "view",
      "type": "function"
    },
    {
      "constant": false,
      "inputs": [
        {
          "name": "_surveyid",
          "type": "uint256"
        },
        {
          "name": "_questionid",
          "type": "uint256"
        },
        {
          "name": "_answer",
          "type": "string"
        }
      ],
      "name": "answerQuestion",
      "outputs": [],
      "payable": false,
      "stateMutability": "nonpayable",
      "type": "function"
    }
  ],
  "bytecode": "0x608060405260006001553480156200001657600080fd5b506040805190810160405280601781526020017f53757276657920526577617264696e672053797374656d00000000000000000081525060029080519060200190620000649291906200006b565b506200011a565b828054600181600116156101000203166002900490600052602060002090601f016020900481019282601f10620000ae57805160ff1916838001178555620000df565b82800160010185558215620000df579182015b82811115620000de578251825591602001919060010190620000c1565b5b509050620000ee9190620000f2565b5090565b6200011791905b8082111562000113576000816000905550600101620000f9565b5090565b90565b6115aa806200012a6000396000f3fe608060405260043610610083576000357c0100000000000000000000000000000000000000000000000000000000900463ffffffff16806306fdde0314610088578063396ab591146101185780635a01005d146101e057806386e68b90146102b2578063c1a3eb12146103ab578063dbbcbe4514610469578063e804f4c014610545575b600080fd5b34801561009457600080fd5b5061009d610570565b6040518080602001828103825283818151815260200191508051906020019080838360005b838110156100dd5780820151818401526020810190506100c2565b50505050905090810190601f16801561010a5780820380516001836020036101000a031916815260200191505b509250505060405180910390f35b34801561012457600080fd5b506101de6004803603602081101561013b57600080fd5b810190808035906020019064010000000081111561015857600080fd5b82018360208201111561016a57600080fd5b8035906020019184600183028401116401000000008311171561018c57600080fd5b91908080601f016020809104026020016040519081016040528093929190818152602001838380828437600081840152601f19601f82011690508083019250505050505050919291929050505061060e565b005b3480156101ec57600080fd5b506102b06004803603604081101561020357600080fd5b810190808035906020019064010000000081111561022057600080fd5b82018360208201111561023257600080fd5b8035906020019184600183028401116401000000008311171561025457600080fd5b91908080601f016020809104026020016040519081016040528093929190818152602001838380828437600081840152601f19601f82011690508083019250505050505050919291929080359060200190929190505050610864565b005b3480156102be57600080fd5b506102eb600480360360208110156102d557600080fd5b8101908080359060200190929190505050610c9a565b60405180806020018573ffffffffffffffffffffffffffffffffffffffff1673ffffffffffffffffffffffffffffffffffffffff16815260200184815260200183151515158152602001828103825286818151815260200191508051906020019080838360005b8381101561036d578082015181840152602081019050610352565b50505050905090810190601f16801561039a5780820380516001836020036101000a031916815260200191505b509550505050505060405180910390f35b3480156103b757600080fd5b506103ee600480360360408110156103ce57600080fd5b810190808035906020019092919080359060200190929190505050610d8f565b6040518080602001828103825283818151815260200191508051906020019080838360005b8381101561042e578082015181840152602081019050610413565b50505050905090810190601f16801561045b5780820380516001836020036101000a031916815260200191505b509250505060405180910390f35b34801561047557600080fd5b506105436004803603606081101561048c57600080fd5b810190808035906020019092919080359060200190929190803590602001906401000000008111156104bd57600080fd5b8201836020820111156104cf57600080fd5b803590602001918460018302840111640100000000831117156104f157600080fd5b91908080601f016020809104026020016040519081016040528093929190818152602001838380828437600081840152601f19601f820116905080830192505050505050509192919290505050610f72565b005b34801561055157600080fd5b5061055a61144c565b6040518082815260200191505060405180910390f35b60028054600181600116156101000203166002900480601f0160208091040260200160405190810160405280929190818152602001828054600181600116156101000203166002900480156106065780601f106105db57610100808354040283529160200191610606565b820191906000526020600020905b8154815290600101906020018083116105e957829003601f168201915b505050505081565b6000815114151515610688576040517f08c379a000000000000000000000000000000000000000000000000000000000815260040180806020018281038252601d8152602001807f537572766579207469746c652063616e206e6f7420626520656d70747900000081525060200191505060405180910390fd5b6080604051908101604052808281526020013373ffffffffffffffffffffffffffffffffffffffff1681526020016000815260200160011515815250600080600154815260200190815260200160002060008201518160000190805190602001906106f4929190611452565b5060208201518160010160006101000a81548173ffffffffffffffffffffffffffffffffffffffff021916908373ffffffffffffffffffffffffffffffffffffffff1602179055506040820151816002015560608201518160030160006101000a81548160ff0219169083151502179055509050506001600081548092919060010191905055507f21b2310f64cc929690aadabb0bb1a1be1f37d9da8c0a0423a0a664b0ab444efe81336000600160405180806020018573ffffffffffffffffffffffffffffffffffffffff1673ffffffffffffffffffffffffffffffffffffffff16815260200184815260200183151515158152602001828103825286818151815260200191508051906020019080838360005b83811015610824578082015181840152602081019050610809565b50505050905090810190601f1680156108515780820380516001836020036101000a031916815260200191505b509550505050505060405180910390a150565b80600154811015156108de576040517f08c379a00000000000000000000000000000000000000000000000000000000081526004018080602001828103825260138152602001807f5375727665792073686f756c642065786973740000000000000000000000000081525060200191505060405180910390fd5b81600080600083815260200190815260200160002090503373ffffffffffffffffffffffffffffffffffffffff168160010160009054906101000a900473ffffffffffffffffffffffffffffffffffffffff1673ffffffffffffffffffffffffffffffffffffffff161415156109e2576040517f08c379a000000000000000000000000000000000000000000000000000000000815260040180806020018281038252602a8152602001807f4f6e6c7920636f6e647563746f722063616e2075736520746869732066756e6381526020017f74696f6e616c697479210000000000000000000000000000000000000000000081525060400191505060405180910390fd5b6000855114151515610a5c576040517f08c379a000000000000000000000000000000000000000000000000000000000815260040180806020018281038252601e8152602001807f5175657374696f6e20746578742063616e206e6f7420626520656d707479000081525060200191505060405180910390fd5b6000806000868152602001908152602001600020905060408051908101604052808781526020016000815250816004016000836002015481526020019081526020016000206000820151816000019080519060200190610abd929190611452565b506020820151816001015590505080600201600081548092919060010191905055508060008087815260200190815260200160002060008201816000019080546001816001161561010002031660029004610b199291906114d2565b506001820160009054906101000a900473ffffffffffffffffffffffffffffffffffffffff168160010160006101000a81548173ffffffffffffffffffffffffffffffffffffffff021916908373ffffffffffffffffffffffffffffffffffffffff160217905550600282015481600201556003820160009054906101000a900460ff168160030160006101000a81548160ff0219169083151502179055509050507f80547e39ed0a9940978a0713741ee486239dff0f2632164fd3d06505a1794bea8682600401600060018560020154038152602001908152602001600020600101548784600201546040518080602001858152602001848152602001838152602001828103825286818151815260200191508051906020019080838360005b83811015610c55578082015181840152602081019050610c3a565b50505050905090810190601f168015610c825780820380516001836020036101000a031916815260200191505b509550505050505060405180910390a1505050505050565b6000602052806000526040600020600091509050806000018054600181600116156101000203166002900480601f016020809104026020016040519081016040528092919081815260200182805460018160011615610100020316600290048015610d465780601f10610d1b57610100808354040283529160200191610d46565b820191906000526020600020905b815481529060010190602001808311610d2957829003601f168201915b5050505050908060010160009054906101000a900473ffffffffffffffffffffffffffffffffffffffff16908060020154908060030160009054906101000a900460ff16905084565b60608260015481101515610e0b576040517f08c379a00000000000000000000000000000000000000000000000000000000081526004018080602001828103825260138152602001807f5375727665792073686f756c642065786973740000000000000000000000000081525060200191505060405180910390fd5b838360008060008481526020019081526020016000209050806002015482101515610e9e576040517f08c379a000000000000000000000000000000000000000000000000000000000815260040180806020018281038252601f8152602001807f5175657374696f6e2073686f756c6420657869737420696e207375727665790081525060200191505060405180910390fd5b600080600089815260200190815260200160002090508060040160008881526020019081526020016000206000018054600181600116156101000203166002900480601f016020809104026020016040519081016040528092919081815260200182805460018160011615610100020316600290048015610f605780601f10610f3557610100808354040283529160200191610f60565b820191906000526020600020905b815481529060010190602001808311610f4357829003601f168201915b50505050509550505050505092915050565b8260015481101515610fec576040517f08c379a00000000000000000000000000000000000000000000000000000000081526004018080602001828103825260138152602001807f5375727665792073686f756c642065786973740000000000000000000000000081525060200191505060405180910390fd5b83836000806000848152602001908152602001600020905080600201548210151561107f576040517f08c379a000000000000000000000000000000000000000000000000000000000815260040180806020018281038252601f8152602001807f5175657374696f6e2073686f756c6420657869737420696e207375727665790081525060200191505060405180910390fd5b86600080600083815260200190815260200160002090503373ffffffffffffffffffffffffffffffffffffffff168160010160009054906101000a900473ffffffffffffffffffffffffffffffffffffffff1673ffffffffffffffffffffffffffffffffffffffff1614151515611184576040517f08c379a000000000000000000000000000000000000000000000000000000000815260040180806020018281038252602c8152602001807f4f6e6c79207061727469636970616e74732063616e207573652074686973206681526020017f756e6374696f6e616c697479000000000000000000000000000000000000000081525060400191505060405180910390fd5b60008060008b8152602001908152602001600020905060008160040160008b8152602001908152602001600020905060408051908101604052803373ffffffffffffffffffffffffffffffffffffffff1681526020018a8152508160020160008360010154815260200190815260200160002060008201518160000160006101000a81548173ffffffffffffffffffffffffffffffffffffffff021916908373ffffffffffffffffffffffffffffffffffffffff160217905550602082015181600101908051906020019061125a929190611452565b509050508060010160008154809291906001019190505550808260040160008c8152602001908152602001600020600082018160000190805460018160011615610100020316600290046112af9291906114d2565b50600182015481600101559050507ff865f684fd9157f78217954058a5acb30f5b40a0fa0797e1519bf06267d46f5b8b8b8460040160008e815260200190815260200160002060020160006001866001015403815260200190815260200160002060000160009054906101000a900473ffffffffffffffffffffffffffffffffffffffff168560040160008f8152602001908152602001600020600201600060018760010154038152602001908152602001600020600101604051808581526020018481526020018373ffffffffffffffffffffffffffffffffffffffff1673ffffffffffffffffffffffffffffffffffffffff1681526020018060200182810382528381815460018160011615610100020316600290048152602001915080546001816001161561010002031660029004801561142e5780601f106114035761010080835404028352916020019161142e565b820191906000526020600020905b81548152906001019060200180831161141157829003601f168201915b50509550505050505060405180910390a15050505050505050505050565b60015481565b828054600181600116156101000203166002900490600052602060002090601f016020900481019282601f1061149357805160ff19168380011785556114c1565b828001600101855582156114c1579182015b828111156114c05782518255916020019190600101906114a5565b5b5090506114ce9190611559565b5090565b828054600181600116156101000203166002900490600052602060002090601f016020900481019282601f1061150b5780548555611548565b8280016001018555821561154857600052602060002091601f016020900482015b8281111561154757825482559160010191906001019061152c565b5b5090506115559190611559565b5090565b61157b91905b8082111561157757600081600090555060010161155f565b5090565b9056fea165627a7a723058205edaed79de6b14f39af0c2f5665683db939a97f624e9c0cc7484dfe1e2c23b7c0029",
  "source": "pragma solidity ^0.5.0;\r\n\r\ncontract SurveyReward {\r\n    mapping(uint256 => Survey) public surveys;\r\n    uint256 public surveyCount = 0;\r\n    string public name;\r\n\r\n    struct Survey {\r\n        string title;\r\n        address payable conductor;\r\n        uint256 questionCount;\r\n        bool open;\r\n        mapping(uint256 => Question) questions;\r\n    }\r\n\r\n    event SurveyCreation(\r\n        string title,\r\n        address payable conductor,\r\n        uint256 questionCount,\r\n        bool open\r\n    );\r\n\r\n    struct Question {\r\n        string text;\r\n        uint256 answerCount;\r\n        mapping(uint256 => Answer) answers;\r\n    }\r\n\r\n    struct Answer {\r\n        address payable participant;\r\n        string text;\r\n    }    \r\n\r\n    event QuestionAdditionToSurvey(\r\n        string text,\r\n        uint256 answerCount,\r\n        uint256 surveyid,\r\n        uint256 questionCount\r\n    );\r\n\r\n    event QuestionAnswered(\r\n        uint256 surveyid,\r\n        uint256 questionid,\r\n        address participant,\r\n        string answer\r\n    );\r\n\r\n    constructor() public {\r\n        name = \"Survey Rewarding System\";\r\n    }\r\n\r\n    modifier surveyExists(uint256 _surveyid){\r\n        require(_surveyid < surveyCount, \"Survey should exist\");\r\n        _;        \r\n    }\r\n\r\n    modifier questionExists(uint256 _surveyid, uint256 _questionid){\r\n        Survey storage _survey = surveys[_surveyid];\r\n        require(_questionid < _survey.questionCount,\"Question should exist in survey\");\r\n        _;\r\n    }\r\n\r\n    modifier conductorOnly(uint256 _surveyid){\r\n        Survey storage _survey = surveys[_surveyid];\r\n        require(_survey.conductor == msg.sender,\"Only conductor can use this functionality!\");\r\n        _;\r\n    }\r\n\r\n    modifier participantOnly(uint256 _surveyid){\r\n        Survey storage _survey = surveys[_surveyid];\r\n        require(_survey.conductor != msg.sender,\"Only participants can use this functionality\");\r\n        _;\r\n    }\r\n\r\n    function createSurvey(string memory _title) public {\r\n        require(bytes(_title).length != 0, \"Survey title can not be empty\");\r\n\r\n        surveys[surveyCount] = Survey(_title, msg.sender, 0, true);\r\n        surveyCount++;\r\n        emit SurveyCreation(_title, msg.sender, 0, true);\r\n    }\r\n\r\n    function createQuestionToSurvey(string memory _text, uint256 _surveyid) surveyExists(_surveyid) conductorOnly(_surveyid)\r\n        public\r\n    {\r\n        require(bytes(_text).length != 0, \"Question text can not be empty\");\r\n        Survey storage _survey = surveys[_surveyid];\r\n        _survey.questions[_survey.questionCount] = Question(_text, 0);\r\n        _survey.questionCount++;\r\n        surveys[_surveyid] = _survey;\r\n        emit QuestionAdditionToSurvey(\r\n            _text,\r\n            _survey.questions[_survey.questionCount - 1].answerCount,\r\n            _surveyid,\r\n            _survey.questionCount\r\n        );\r\n    }\r\n\r\n    function getQuestionFromSurvey(uint256 _surveyid, uint256 _questionid) public view \r\n    surveyExists(_surveyid) \r\n    questionExists(_surveyid,_questionid) \r\n    returns(string memory){\r\n        Survey storage _survey = surveys[_surveyid];\r\n        return _survey.questions[_questionid].text;\r\n    }\r\n\r\n    // function getAnswers(uint256 _surveyid, uint256 _questionid) public view surveyAndQuestionExists(_surveyid,_questionid) returns(bytes32) {\r\n    //     Survey storage _survey = surveys[_surveyid];\r\n    //     require(_survey.conductor == msg.sender,\"Only conductor can use this functionality!\");\r\n    //     Question storage _question = _survey.questions[_questionid];\r\n    //     uint256 _answerCount = _question.answerCount;\r\n    //     bytes32[] memory _answers = new bytes32[];\r\n    //     for(uint i = 0 ; i > _answerCount ; i++){\r\n    //         _answers.push(_question.answers[i].text);\r\n    //     }\r\n    //     return _answers;\r\n    // }\r\n\r\n    function answerQuestion(uint256 _surveyid, uint256 _questionid, string memory _answer) public \r\n    surveyExists(_surveyid) \r\n    questionExists(_surveyid,_questionid) \r\n    participantOnly(_surveyid){\r\n\r\n        Survey storage _survey = surveys[_surveyid];\r\n        Question storage _question = _survey.questions[_questionid];\r\n        _question.answers[_question.answerCount] = Answer(msg.sender,_answer);\r\n        _question.answerCount++;\r\n        _survey.questions[_questionid] = _question;\r\n\r\n        emit QuestionAnswered(_surveyid, _questionid, \r\n        _survey.questions[_questionid].answers[_question.answerCount - 1].participant, \r\n        _survey.questions[_questionid].answers[_question.answerCount - 1].text);\r\n    }\r\n}\r\n",
  "sourcePath": "C:/Users/canbe/Desktop/Canberk/CAREER/survey_reward/src/contracts/SurveyReward.sol",
  "compiler": {
    "name": "solc",
    "version": "0.5.0+commit.1d4f565a.Emscripten.clang"
  },
  "schemaVersion": "3.0.1",
  "updatedAt": "2021-05-01T17:12:39.414Z",
  "devdoc": {
    "methods": {}
  },
  "userdoc": {
    "methods": {}
  }
}