{
  "contractName": "SurveyReward",
  "abi": [
    {
      "constant": true,
      "inputs": [],
      "name": "name",
      "outputs": [
        {
          "name": "",
          "type": "string"
        }
      ],
      "payable": false,
      "stateMutability": "view",
      "type": "function"
    },
    {
      "constant": true,
      "inputs": [
        {
          "name": "",
          "type": "uint256"
        }
      ],
      "name": "surveys",
      "outputs": [
        {
          "name": "title",
          "type": "string"
        },
        {
          "name": "conductor",
          "type": "address"
        },
        {
          "name": "questionCount",
          "type": "uint256"
        },
        {
          "name": "open",
          "type": "bool"
        },
        {
          "name": "reward",
          "type": "uint256"
        },
        {
          "name": "balance",
          "type": "uint256"
        },
        {
          "name": "description",
          "type": "string"
        }
      ],
      "payable": false,
      "stateMutability": "view",
      "type": "function"
    },
    {
      "constant": true,
      "inputs": [],
      "name": "surveyCount",
      "outputs": [
        {
          "name": "",
          "type": "uint256"
        }
      ],
      "payable": false,
      "stateMutability": "view",
      "type": "function"
    },
    {
      "inputs": [],
      "payable": false,
      "stateMutability": "nonpayable",
      "type": "constructor"
    },
    {
      "anonymous": false,
      "inputs": [
        {
          "indexed": false,
          "name": "title",
          "type": "string"
        },
        {
          "indexed": false,
          "name": "conductor",
          "type": "address"
        },
        {
          "indexed": false,
          "name": "questionCount",
          "type": "uint256"
        },
        {
          "indexed": false,
          "name": "open",
          "type": "bool"
        },
        {
          "indexed": false,
          "name": "reward",
          "type": "uint256"
        },
        {
          "indexed": false,
          "name": "balance",
          "type": "uint256"
        },
        {
          "indexed": false,
          "name": "description",
          "type": "string"
        }
      ],
      "name": "SurveyCreation",
      "type": "event"
    },
    {
      "anonymous": false,
      "inputs": [
        {
          "indexed": false,
          "name": "text",
          "type": "bytes32"
        },
        {
          "indexed": false,
          "name": "answerCount",
          "type": "uint256"
        },
        {
          "indexed": false,
          "name": "surveyid",
          "type": "uint256"
        },
        {
          "indexed": false,
          "name": "questionCount",
          "type": "uint256"
        }
      ],
      "name": "QuestionAdditionToSurvey",
      "type": "event"
    },
    {
      "anonymous": false,
      "inputs": [
        {
          "indexed": false,
          "name": "surveyid",
          "type": "uint256"
        },
        {
          "indexed": false,
          "name": "questionid",
          "type": "uint256"
        },
        {
          "indexed": false,
          "name": "participant",
          "type": "address"
        },
        {
          "indexed": false,
          "name": "answer",
          "type": "bytes32"
        }
      ],
      "name": "QuestionAnswered",
      "type": "event"
    },
    {
      "anonymous": false,
      "inputs": [
        {
          "indexed": false,
          "name": "surveyid",
          "type": "uint256"
        },
        {
          "indexed": false,
          "name": "open",
          "type": "bool"
        }
      ],
      "name": "CloseSurvey",
      "type": "event"
    },
    {
      "constant": false,
      "inputs": [
        {
          "name": "_title",
          "type": "string"
        },
        {
          "name": "_reward",
          "type": "uint256"
        },
        {
          "name": "_description",
          "type": "string"
        },
        {
          "name": "questions",
          "type": "bytes32[]"
        }
      ],
      "name": "createSurvey",
      "outputs": [],
      "payable": true,
      "stateMutability": "payable",
      "type": "function"
    },
    {
      "constant": false,
      "inputs": [
        {
          "name": "_surveyid",
          "type": "uint256"
        }
      ],
      "name": "closeSurvey",
      "outputs": [],
      "payable": false,
      "stateMutability": "nonpayable",
      "type": "function"
    },
    {
      "constant": true,
      "inputs": [
        {
          "name": "_surveyid",
          "type": "uint256"
        },
        {
          "name": "_questionid",
          "type": "uint256"
        }
      ],
      "name": "getQuestionFromSurvey",
      "outputs": [
        {
          "name": "",
          "type": "bytes32"
        }
      ],
      "payable": false,
      "stateMutability": "view",
      "type": "function"
    },
    {
      "constant": true,
      "inputs": [
        {
          "name": "_surveyid",
          "type": "uint256"
        },
        {
          "name": "_questionid",
          "type": "uint256"
        }
      ],
      "name": "getAnswers",
      "outputs": [
        {
          "name": "",
          "type": "bytes32[]"
        }
      ],
      "payable": false,
      "stateMutability": "view",
      "type": "function"
    },
    {
      "constant": false,
      "inputs": [
        {
          "name": "_surveyid",
          "type": "uint256"
        },
        {
          "name": "_questionid",
          "type": "uint256"
        },
        {
          "name": "_answer",
          "type": "bytes32"
        }
      ],
      "name": "answerQuestion",
      "outputs": [],
      "payable": true,
      "stateMutability": "payable",
      "type": "function"
    }
  ],
  "bytecode": "0x608060405260006001553480156200001657600080fd5b506040805190810160405280601781526020017f53757276657920526577617264696e672053797374656d00000000000000000081525060029080519060200190620000649291906200006b565b506200011a565b828054600181600116156101000203166002900490600052602060002090601f016020900481019282601f10620000ae57805160ff1916838001178555620000df565b82800160010185558215620000df579182015b82811115620000de578251825591602001919060010190620000c1565b5b509050620000ee9190620000f2565b5090565b6200011791905b8082111562000113576000816000905550600101620000f9565b5090565b90565b6121c0806200012a6000396000f3fe60806040526004361061008e576000357c0100000000000000000000000000000000000000000000000000000000900463ffffffff16806306fdde03146100935780631dfa728f1461012357806386e68b90146103135780638f0fff3d14610486578063c1a3eb1214610520578063c797b31e14610579578063d8fb49fe146105bb578063e804f4c0146105f6575b600080fd5b34801561009f57600080fd5b506100a8610621565b6040518080602001828103825283818151815260200191508051906020019080838360005b838110156100e85780820151818401526020810190506100cd565b50505050905090810190601f1680156101155780820380516001836020036101000a031916815260200191505b509250505060405180910390f35b6103116004803603608081101561013957600080fd5b810190808035906020019064010000000081111561015657600080fd5b82018360208201111561016857600080fd5b8035906020019184600183028401116401000000008311171561018a57600080fd5b91908080601f016020809104026020016040519081016040528093929190818152602001838380828437600081840152601f19601f82011690508083019250505050505050919291929080359060200190929190803590602001906401000000008111156101f757600080fd5b82018360208201111561020957600080fd5b8035906020019184600183028401116401000000008311171561022b57600080fd5b91908080601f016020809104026020016040519081016040528093929190818152602001838380828437600081840152601f19601f8201169050808301925050505050505091929192908035906020019064010000000081111561028e57600080fd5b8201836020820111156102a057600080fd5b803590602001918460208302840111640100000000831117156102c257600080fd5b919080806020026020016040519081016040528093929190818152602001838360200280828437600081840152601f19601f8201169050808301925050505050505091929192905050506106bf565b005b34801561031f57600080fd5b5061034c6004803603602081101561033657600080fd5b8101908080359060200190929190505050610e9c565b60405180806020018873ffffffffffffffffffffffffffffffffffffffff1673ffffffffffffffffffffffffffffffffffffffff168152602001878152602001861515151581526020018581526020018481526020018060200183810383528a818151815260200191508051906020019080838360005b838110156103de5780820151818401526020810190506103c3565b50505050905090810190601f16801561040b5780820380516001836020036101000a031916815260200191505b50838103825284818151815260200191508051906020019080838360005b83811015610444578082015181840152602081019050610429565b50505050905090810190601f1680156104715780820380516001836020036101000a031916815260200191505b50995050505050505050505060405180910390f35b34801561049257600080fd5b506104c9600480360360408110156104a957600080fd5b81019080803590602001909291908035906020019092919050505061103b565b6040518080602001828103825283818151815260200191508051906020019060200280838360005b8381101561050c5780820151818401526020810190506104f1565b505050509050019250505060405180910390f35b34801561052c57600080fd5b506105636004803603604081101561054357600080fd5b81019080803590602001909291908035906020019092919050505061130a565b6040518082815260200191505060405180910390f35b6105b96004803603606081101561058f57600080fd5b8101908080359060200190929190803590602001909291908035906020019092919050505061144d565b005b3480156105c757600080fd5b506105f4600480360360208110156105de57600080fd5b8101908080359060200190929190505050611da6565b005b34801561060257600080fd5b5061060b612062565b6040518082815260200191505060405180910390f35b60028054600181600116156101000203166002900480601f0160208091040260200160405190810160405280929190818152602001828054600181600116156101000203166002900480156106b75780601f1061068c576101008083540402835291602001916106b7565b820191906000526020600020905b81548152906001019060200180831161069a57829003601f168201915b505050505081565b6000845114151515610739576040517f08c379a000000000000000000000000000000000000000000000000000000000815260040180806020018281038252601d8152602001807f537572766579207469746c652063616e206e6f7420626520656d70747900000081525060200191505060405180910390fd5b60008251141515156107b3576040517f08c379a000000000000000000000000000000000000000000000000000000000815260040180806020018281038252601d8152602001807f537572766579207469746c652063616e206e6f7420626520656d70747900000081525060200191505060405180910390fd5b823410151515610851576040517f08c379a00000000000000000000000000000000000000000000000000000000081526004018080602001828103825260368152602001807f537572766579206d75737420626520636f6d706c657461626c6520627920617481526020017f206c65617374206f6e65207061727469636970616e740000000000000000000081525060400191505060405180910390fd5b600081511115156108f0576040517f08c379a000000000000000000000000000000000000000000000000000000000815260040180806020018281038252602c8152602001807f4f6e65207175657374696f6e2073686f756c642062652070726573656e74206981526020017f6e2074686520737572766579000000000000000000000000000000000000000081525060400191505060405180910390fd5b60e0604051908101604052808581526020013373ffffffffffffffffffffffffffffffffffffffff16815260200160008152602001600115158152602001848152602001348152602001838152506000806001548152602001908152602001600020600082015181600001908051906020019061096e929190612068565b5060208201518160010160006101000a81548173ffffffffffffffffffffffffffffffffffffffff021916908373ffffffffffffffffffffffffffffffffffffffff1602179055506040820151816002015560608201518160030160006101000a81548160ff0219169083151502179055506080820151816004015560a0820151816005015560c0820151816006019080519060200190610a10929190612068565b5090505060008060006001548152602001908152602001600020905060408051908101604052807f4920616d206e6f74207573696e67206120626f74000000000000000000000000815260200160008152508160070160008081526020019081526020016000206000820151816000015560208201518160010155905050806002016000815480929190600101919050555060008090505b8251811015610bba5760408051908101604052808483815181101515610aca57fe5b906020019060200201518152602001600081525082600701600084600201548152602001908152602001600020600082015181600001556020820151816001015590505081600201600081548092919060010191905055507fd19d6c190f34df0b3e30c6c2b2acd40da46e6e43ee33ed45dea9ae31af9fb1a28382815181101515610b5157fe5b90602001906020020151836007016000600186600201540381526020019081526020016000206001015460015485600201546040518085815260200184815260200183815260200182815260200194505050505060405180910390a18080600101915050610aa8565b5080600080600154815260200190815260200160002060008201816000019080546001816001161561010002031660029004610bf79291906120e8565b506001820160009054906101000a900473ffffffffffffffffffffffffffffffffffffffff168160010160006101000a81548173ffffffffffffffffffffffffffffffffffffffff021916908373ffffffffffffffffffffffffffffffffffffffff160217905550600282015481600201556003820160009054906101000a900460ff168160030160006101000a81548160ff021916908315150217905550600482015481600401556005820154816005015560068201816006019080546001816001161561010002031660029004610cd19291906120e8565b509050506001600081548092919060010191905055507fee85475c09e77f9e2e0d504dab871a9c9190cf5862f4e9d717d9a5bbf3475db3816000013383600201546001856004015486600501548760060160405180806020018873ffffffffffffffffffffffffffffffffffffffff1673ffffffffffffffffffffffffffffffffffffffff168152602001878152602001861515151581526020018581526020018481526020018060200183810383528a818154600181600116156101000203166002900481526020019150805460018160011615610100020316600290048015610dfd5780601f10610dd257610100808354040283529160200191610dfd565b820191906000526020600020905b815481529060010190602001808311610de057829003601f168201915b5050838103825284818154600181600116156101000203166002900481526020019150805460018160011615610100020316600290048015610e805780601f10610e5557610100808354040283529160200191610e80565b820191906000526020600020905b815481529060010190602001808311610e6357829003601f168201915b5050995050505050505050505060405180910390a15050505050565b6000602052806000526040600020600091509050806000018054600181600116156101000203166002900480601f016020809104026020016040519081016040528092919081815260200182805460018160011615610100020316600290048015610f485780601f10610f1d57610100808354040283529160200191610f48565b820191906000526020600020905b815481529060010190602001808311610f2b57829003601f168201915b5050505050908060010160009054906101000a900473ffffffffffffffffffffffffffffffffffffffff16908060020154908060030160009054906101000a900460ff1690806004015490806005015490806006018054600181600116156101000203166002900480601f0160208091040260200160405190810160405280929190818152602001828054600181600116156101000203166002900480156110315780601f1061100657610100808354040283529160200191611031565b820191906000526020600020905b81548152906001019060200180831161101457829003601f168201915b5050505050905087565b60608282600154821015156110b8576040517f08c379a00000000000000000000000000000000000000000000000000000000081526004018080602001828103825260138152602001807f5375727665792073686f756c642065786973740000000000000000000000000081525060200191505060405180910390fd5b6000808381526020019081526020016000206002015481101515611144576040517f08c379a000000000000000000000000000000000000000000000000000000000815260040180806020018281038252601f8152602001807f5175657374696f6e2073686f756c6420657869737420696e207375727665790081525060200191505060405180910390fd5b843373ffffffffffffffffffffffffffffffffffffffff1660008083815260200190815260200160002060010160009054906101000a900473ffffffffffffffffffffffffffffffffffffffff1673ffffffffffffffffffffffffffffffffffffffff16141515611243576040517f08c379a00000000000000000000000000000000000000000000000000000000081526004018080602001828103825260298152602001807f4f6e6c7920636f6e647563746f722063616e2075736520746869732066756e6381526020017f74696f6e616c697479000000000000000000000000000000000000000000000081525060400191505060405180910390fd5b6000806000888152602001908152602001600020600701600087815260200190815260200160002090506000816001015490506060816040519080825280602002602001820160405280156112a75781602001602082028038833980820191505090505b50905060008090505b828110156112fa578360020160008281526020019081526020016000206001015482828151811015156112df57fe5b906020019060200201818152505080806001019150506112b0565b5080965050505050505092915050565b6000828260015482101515611387576040517f08c379a00000000000000000000000000000000000000000000000000000000081526004018080602001828103825260138152602001807f5375727665792073686f756c642065786973740000000000000000000000000081525060200191505060405180910390fd5b6000808381526020019081526020016000206002015481101515611413576040517f08c379a000000000000000000000000000000000000000000000000000000000815260040180806020018281038252601f8152602001807f5175657374696f6e2073686f756c6420657869737420696e207375727665790081525060200191505060405180910390fd5b6000806000878152602001908152602001600020905080600701600086815260200190815260200160002060000154935050505092915050565b8282600154821015156114c8576040517f08c379a00000000000000000000000000000000000000000000000000000000081526004018080602001828103825260138152602001807f5375727665792073686f756c642065786973740000000000000000000000000081525060200191505060405180910390fd5b6001151560008084815260200190815260200160002060030160009054906101000a900460ff161515141515611566576040517f08c379a00000000000000000000000000000000000000000000000000000000081526004018080602001828103825260108152602001807f53757276657920697320636c6f7365640000000000000000000000000000000081525060200191505060405180910390fd5b60008083815260200190815260200160002060020154811015156115f2576040517f08c379a000000000000000000000000000000000000000000000000000000000815260040180806020018281038252601f8152602001807f5175657374696f6e2073686f756c6420657869737420696e207375727665790081525060200191505060405180910390fd5b3373ffffffffffffffffffffffffffffffffffffffff1660008084815260200190815260200160002060010160009054906101000a900473ffffffffffffffffffffffffffffffffffffffff1673ffffffffffffffffffffffffffffffffffffffff16141515156116f1576040517f08c379a000000000000000000000000000000000000000000000000000000000815260040180806020018281038252602c8152602001807f4f6e6c79207061727469636970616e74732063616e207573652074686973206681526020017f756e6374696f6e616c697479000000000000000000000000000000000000000081525060400191505060405180910390fd5b848460008060008481526020019081526020016000209050818160080160003373ffffffffffffffffffffffffffffffffffffffff1673ffffffffffffffffffffffffffffffffffffffff168152602001908152602001600020541415156117e7576040517f08c379a000000000000000000000000000000000000000000000000000000000815260040180806020018281038252602b8152602001807f43616e206f6e6c7920616e737765722066726f6d206c6173742071756573746981526020017f6f6e20616e73776572656400000000000000000000000000000000000000000081525060400191505060405180910390fd5b60008060008a8152602001908152602001600020905080600401548160050154101515156118a3576040517f08c379a00000000000000000000000000000000000000000000000000000000081526004018080602001828103825260248152602001807f546869732073757276657920686173206e6f206d6f726520726577617264732081526020017f6c6566740000000000000000000000000000000000000000000000000000000081525060400191505060405180910390fd5b60008160070160008a8152602001908152602001600020905060008914156119bd57806000015488141515611940576040517f08c379a00000000000000000000000000000000000000000000000000000000081526004018080602001828103825260168152602001807f43617074636861206973206e6f7420636f72726563740000000000000000000081525060200191505060405180910390fd5b60c8341415156119b8576040517f08c379a00000000000000000000000000000000000000000000000000000000081526004018080602001828103825260158152602001807f50726f7669646520696e697469616c207072696365000000000000000000000081525060200191505060405180910390fd5b611a58565b6001826002015403891415611a57573373ffffffffffffffffffffffffffffffffffffffff166108fc83600401549081150290604051600060405180830381858888f19350505050158015611a16573d6000803e3d6000fd5b508160040154826005015403826005018190555060008260050154111515611a565760008260030160006101000a81548160ff0219169083151502179055505b5b5b60408051908101604052803373ffffffffffffffffffffffffffffffffffffffff168152602001898152508160020160008360010154815260200190815260200160002060008201518160000160006101000a81548173ffffffffffffffffffffffffffffffffffffffff021916908373ffffffffffffffffffffffffffffffffffffffff160217905550602082015181600101559050508060010160008154809291906001019190505550808260070160008b8152602001908152602001600020600082015481600001556001820154816001015590505060018260080160003373ffffffffffffffffffffffffffffffffffffffff1673ffffffffffffffffffffffffffffffffffffffff16815260200190815260200160002060008282540192505081905550816000808c815260200190815260200160002060008201816000019080546001816001161561010002031660029004611bbb9291906120e8565b506001820160009054906101000a900473ffffffffffffffffffffffffffffffffffffffff168160010160006101000a81548173ffffffffffffffffffffffffffffffffffffffff021916908373ffffffffffffffffffffffffffffffffffffffff160217905550600282015481600201556003820160009054906101000a900460ff168160030160006101000a81548160ff021916908315150217905550600482015481600401556005820154816005015560068201816006019080546001816001161561010002031660029004611c959291906120e8565b509050507f39eaf6a8fec99688e37c31d0b4488731f43404e83c7b286e5d2717d4bac2c1358a8a8460070160008d815260200190815260200160002060020160006001866001015403815260200190815260200160002060000160009054906101000a900473ffffffffffffffffffffffffffffffffffffffff168560070160008e815260200190815260200160002060020160006001876001015403815260200190815260200160002060010154604051808581526020018481526020018373ffffffffffffffffffffffffffffffffffffffff1673ffffffffffffffffffffffffffffffffffffffff16815260200182815260200194505050505060405180910390a150505050505050505050565b8060015481101515611e20576040517f08c379a00000000000000000000000000000000000000000000000000000000081526004018080602001828103825260138152602001807f5375727665792073686f756c642065786973740000000000000000000000000081525060200191505060405180910390fd5b6001151560008083815260200190815260200160002060030160009054906101000a900460ff161515141515611ebe576040517f08c379a00000000000000000000000000000000000000000000000000000000081526004018080602001828103825260108152602001807f53757276657920697320636c6f7365640000000000000000000000000000000081525060200191505060405180910390fd5b6000806000848152602001908152602001600020905060008160030160006101000a81548160ff0219169083151502179055508060008085815260200190815260200160002060008201816000019080546001816001161561010002031660029004611f2b9291906120e8565b506001820160009054906101000a900473ffffffffffffffffffffffffffffffffffffffff168160010160006101000a81548173ffffffffffffffffffffffffffffffffffffffff021916908373ffffffffffffffffffffffffffffffffffffffff160217905550600282015481600201556003820160009054906101000a900460ff168160030160006101000a81548160ff0219169083151502179055506004820154816004015560058201548160050155600682018160060190805460018160011615610100020316600290046120059291906120e8565b509050507f5c98c563c156afb260a135bef89654797a180f5d7baba068ae602d6d2428ae6b838260030160009054906101000a900460ff1660405180838152602001821515151581526020019250505060405180910390a1505050565b60015481565b828054600181600116156101000203166002900490600052602060002090601f016020900481019282601f106120a957805160ff19168380011785556120d7565b828001600101855582156120d7579182015b828111156120d65782518255916020019190600101906120bb565b5b5090506120e4919061216f565b5090565b828054600181600116156101000203166002900490600052602060002090601f016020900481019282601f10612121578054855561215e565b8280016001018555821561215e57600052602060002091601f016020900482015b8281111561215d578254825591600101919060010190612142565b5b50905061216b919061216f565b5090565b61219191905b8082111561218d576000816000905550600101612175565b5090565b9056fea165627a7a723058205ae762c7aac470525b68c512cf9bfc3759f874d425ee9c52b12149716a17bbaf0029",
  "source": "pragma solidity ^0.5.0;\r\n\r\ncontract SurveyReward {\r\n    mapping(uint256 => Survey) public surveys;\r\n    uint256 public surveyCount = 0;\r\n    string public name;\r\n\r\n    struct Survey {\r\n        string title;\r\n        address payable conductor;\r\n        uint256 questionCount;\r\n        bool open;\r\n        uint256 reward;\r\n        uint256 balance;\r\n        string description;\r\n        mapping(uint256 => Question) questions;\r\n        mapping(address => uint256) lastLeft;\r\n    }\r\n\r\n    event SurveyCreation(\r\n        string title,\r\n        address payable conductor,\r\n        uint256 questionCount,\r\n        bool open,\r\n        uint256 reward,\r\n        uint256 balance,\r\n        string description\r\n    );\r\n\r\n    struct Question {\r\n        bytes32 text;\r\n        uint256 answerCount;\r\n        mapping(uint256 => Answer) answers;\r\n    }\r\n\r\n    struct Answer {\r\n        address payable participant;\r\n        bytes32 text;\r\n    }    \r\n\r\n    event QuestionAdditionToSurvey(\r\n        bytes32 text,\r\n        uint256 answerCount,\r\n        uint256 surveyid,\r\n        uint256 questionCount\r\n    );\r\n\r\n    event QuestionAnswered(\r\n        uint256 surveyid,\r\n        uint256 questionid,\r\n        address participant,\r\n        bytes32 answer\r\n    );\r\n\r\n    event CloseSurvey(\r\n        uint256 surveyid,\r\n        bool open\r\n    );\r\n\r\n    constructor() public {\r\n        name = \"Survey Rewarding System\";\r\n    }\r\n\r\n    modifier surveyAvailable(uint256 _surveyid){\r\n        require(_surveyid < surveyCount, \"Survey should exist\");\r\n        require(surveys[_surveyid].open == true,\"Survey is closed\");\r\n        _;        \r\n    }\r\n\r\n    modifier questionAvailable(uint256 _surveyid, uint256 _questionid){\r\n        require(_surveyid < surveyCount, \"Survey should exist\");\r\n        require(_questionid < surveys[_surveyid].questionCount,\"Question should exist in survey\");\r\n        _;\r\n    }\r\n    \r\n    modifier questionAnswarable(uint256 _surveyid, uint256 _questionid){\r\n        require(_surveyid < surveyCount, \"Survey should exist\");\r\n        require(surveys[_surveyid].open == true,\"Survey is closed\");\r\n        require(_questionid < surveys[_surveyid].questionCount,\"Question should exist in survey\");\r\n        require(surveys[_surveyid].conductor != msg.sender,\"Only participants can use this functionality\");\r\n        _;\r\n    }\r\n\r\n    modifier conductorOnly(uint256 _surveyid){\r\n        require(surveys[_surveyid].conductor == msg.sender,\"Only conductor can use this functionality\");\r\n        _;\r\n    }\r\n\r\n    modifier participantOnly(uint256 _surveyid){\r\n        require(surveys[_surveyid].conductor != msg.sender,\"Only participants can use this functionality\");\r\n        _;\r\n    }\r\n\r\n    modifier checkpointSatisfies(uint256 _surveyid,uint256 _questionid){\r\n        Survey storage _survey = surveys[_surveyid];\r\n        require(_survey.lastLeft[msg.sender] == _questionid,\"Can only answer from last question answered\");\r\n        _;\r\n    }\r\n\r\n    // CREATES A SURVEY WITH GIVEN TITLE AND REWARD PARAMS\r\n    // QUESTION 0 IS A CONSTANT CAPTCHA WHICH MUST BE TYPED BY THE PARTICIPANT\r\n    // TO PREVENT BOT ATTACKS\r\n    function createSurvey(string memory _title,uint256 _reward,\r\n    string memory _description,bytes32[] memory questions) \r\n    public payable {\r\n\r\n        require(bytes(_title).length != 0, \"Survey title can not be empty\");\r\n        require(bytes(_description).length != 0, \"Survey title can not be empty\");\r\n        require(msg.value >= _reward,\"Survey must be completable by at least one participant\");\r\n        require(questions.length > 0 ,\"One question should be present in the survey\");\r\n\r\n        surveys[surveyCount] = Survey(_title, msg.sender, 0, true,_reward,msg.value,_description);\r\n        Survey storage _survey = surveys[surveyCount];\r\n        _survey.questions[0] = Question(\"I am not using a bot\",0);\r\n        _survey.questionCount++;\r\n\r\n        for(uint i = 0; i < questions.length ; i++){\r\n            _survey.questions[_survey.questionCount] = Question(questions[i], 0);\r\n            _survey.questionCount++;\r\n            emit QuestionAdditionToSurvey(\r\n                questions[i],\r\n                _survey.questions[_survey.questionCount - 1].answerCount,\r\n                surveyCount,\r\n                _survey.questionCount\r\n            );\r\n        }\r\n\r\n        surveys[surveyCount] = _survey;\r\n        surveyCount++;\r\n        \r\n        emit SurveyCreation(_survey.title, msg.sender, _survey.questionCount , true,_survey.reward,_survey.balance,_survey.description);\r\n    }\r\n\r\n    function closeSurvey(uint256 _surveyid) public surveyAvailable(_surveyid){\r\n        Survey storage _survey = surveys[_surveyid];\r\n        _survey.open = false;\r\n        surveys[_surveyid] = _survey;\r\n        emit CloseSurvey(_surveyid, _survey.open);\r\n    }\r\n\r\n    // GETS QUESTION TEXT FROM SURVEY\r\n    // REQUIRED: SURVEY AND QUESTIN SHOULD EXIST\r\n    function getQuestionFromSurvey(uint256 _surveyid, uint256 _questionid) public view \r\n    questionAvailable(_surveyid,_questionid)\r\n    returns(bytes32){\r\n        Survey storage _survey = surveys[_surveyid];\r\n        return _survey.questions[_questionid].text;\r\n    }\r\n\r\n    // GETS ALL THE ANSWERS TO GIVEN QUESTION\r\n    // REQUIRED: QUESTION SHOULD EXIST AND SENDER MUST BE CONDUCTOR\r\n    function getAnswers(uint256 _surveyid, uint256 _questionid) public view \r\n    questionAvailable(_surveyid,_questionid)\r\n    conductorOnly(_surveyid) returns(bytes32[] memory) {\r\n        Question storage _question = surveys[_surveyid].questions[_questionid];\r\n        uint256 _answerCount = _question.answerCount;\r\n        bytes32[] memory _answers = new bytes32[](_answerCount);\r\n        for(uint i = 0 ; i < _answerCount ; i++){\r\n            _answers[i] = _question.answers[i].text;\r\n        }\r\n        return _answers;\r\n    }\r\n\r\n    // ANSWERS GIVEN QUESTION FROM GIVEN SURVEY\r\n    // REQUIRED: QUESTION AND SURVEY MUST EXIST, SURVEY MUST BE OPEN AND \r\n    // QUESTION ID SHOULD BE EQUAL TO CHECKPOINT OF PARTICIPANT\r\n    // MESSAGE SENDER SHOULD NOT BE THE CONDUCTOR\r\n    function answerQuestion(uint256 _surveyid, uint256 _questionid, bytes32 _answer) public payable\r\n    questionAnswarable(_surveyid,_questionid)\r\n    checkpointSatisfies(_surveyid,_questionid){\r\n\r\n        Survey storage _survey = surveys[_surveyid];\r\n        require(_survey.balance >= _survey.reward,\"This survey has no more rewards left\");\r\n        Question storage _question = _survey.questions[_questionid];\r\n\r\n        if(_questionid == 0){ // QUESTION IS CAPTCHA\r\n            require(_answer == _question.text,\"Captcha is not correct\");\r\n            require(msg.value == 200,\"Provide initial price\");\r\n        }\r\n\r\n        else if(_questionid == _survey.questionCount-1){ // QUESTION IS LAST\r\n            msg.sender.transfer(_survey.reward);\r\n            _survey.balance = _survey.balance - _survey.reward;\r\n            if(_survey.balance <= 0 ) _survey.open = false;\r\n        }\r\n\r\n        // SAVE THE ANSWER\r\n        _question.answers[_question.answerCount] = Answer(msg.sender,_answer);\r\n        _question.answerCount++;\r\n        _survey.questions[_questionid] = _question;\r\n        _survey.lastLeft[msg.sender] += 1;\r\n        surveys[_surveyid] = _survey;\r\n\r\n        emit QuestionAnswered(_surveyid, _questionid, \r\n        _survey.questions[_questionid].answers[_question.answerCount - 1].participant, \r\n        _survey.questions[_questionid].answers[_question.answerCount - 1].text);\r\n    }\r\n\r\n}\r\n",
  "sourcePath": "C:/Users/canbe/Desktop/Canberk/CAREER/survey_reward/src/contracts/SurveyReward.sol",
  "compiler": {
    "name": "solc",
    "version": "0.5.0+commit.1d4f565a.Emscripten.clang"
  },
  "schemaVersion": "3.0.1",
  "updatedAt": "2021-05-26T21:39:07.797Z",
  "devdoc": {
    "methods": {}
  },
  "userdoc": {
    "methods": {}
  }
}