{
  "contractName": "SurveyReward",
  "abi": [
    {
      "constant": true,
      "inputs": [],
      "name": "name",
      "outputs": [
        {
          "name": "",
          "type": "string"
        }
      ],
      "payable": false,
      "stateMutability": "view",
      "type": "function"
    },
    {
      "constant": true,
      "inputs": [
        {
          "name": "",
          "type": "uint256"
        }
      ],
      "name": "surveys",
      "outputs": [
        {
          "name": "title",
          "type": "string"
        },
        {
          "name": "conductor",
          "type": "address"
        },
        {
          "name": "questionCount",
          "type": "uint256"
        },
        {
          "name": "open",
          "type": "bool"
        },
        {
          "name": "reward",
          "type": "uint256"
        }
      ],
      "payable": false,
      "stateMutability": "view",
      "type": "function"
    },
    {
      "constant": true,
      "inputs": [],
      "name": "surveyCount",
      "outputs": [
        {
          "name": "",
          "type": "uint256"
        }
      ],
      "payable": false,
      "stateMutability": "view",
      "type": "function"
    },
    {
      "inputs": [],
      "payable": false,
      "stateMutability": "nonpayable",
      "type": "constructor"
    },
    {
      "anonymous": false,
      "inputs": [
        {
          "indexed": false,
          "name": "title",
          "type": "string"
        },
        {
          "indexed": false,
          "name": "conductor",
          "type": "address"
        },
        {
          "indexed": false,
          "name": "questionCount",
          "type": "uint256"
        },
        {
          "indexed": false,
          "name": "open",
          "type": "bool"
        }
      ],
      "name": "SurveyCreation",
      "type": "event"
    },
    {
      "anonymous": false,
      "inputs": [
        {
          "indexed": false,
          "name": "text",
          "type": "bytes32"
        },
        {
          "indexed": false,
          "name": "answerCount",
          "type": "uint256"
        },
        {
          "indexed": false,
          "name": "surveyid",
          "type": "uint256"
        },
        {
          "indexed": false,
          "name": "questionCount",
          "type": "uint256"
        }
      ],
      "name": "QuestionAdditionToSurvey",
      "type": "event"
    },
    {
      "anonymous": false,
      "inputs": [
        {
          "indexed": false,
          "name": "surveyid",
          "type": "uint256"
        },
        {
          "indexed": false,
          "name": "questionid",
          "type": "uint256"
        },
        {
          "indexed": false,
          "name": "participant",
          "type": "address"
        },
        {
          "indexed": false,
          "name": "answer",
          "type": "bytes32"
        }
      ],
      "name": "QuestionAnswered",
      "type": "event"
    },
    {
      "constant": false,
      "inputs": [
        {
          "name": "_title",
          "type": "string"
        },
        {
          "name": "_reward",
          "type": "uint256"
        }
      ],
      "name": "createSurvey",
      "outputs": [],
      "payable": false,
      "stateMutability": "nonpayable",
      "type": "function"
    },
    {
      "constant": false,
      "inputs": [
        {
          "name": "questions",
          "type": "bytes32[]"
        },
        {
          "name": "_surveyid",
          "type": "uint256"
        }
      ],
      "name": "appendQuestions",
      "outputs": [],
      "payable": false,
      "stateMutability": "nonpayable",
      "type": "function"
    },
    {
      "constant": true,
      "inputs": [
        {
          "name": "_surveyid",
          "type": "uint256"
        },
        {
          "name": "_questionid",
          "type": "uint256"
        }
      ],
      "name": "getQuestionFromSurvey",
      "outputs": [
        {
          "name": "",
          "type": "bytes32"
        }
      ],
      "payable": false,
      "stateMutability": "view",
      "type": "function"
    },
    {
      "constant": true,
      "inputs": [
        {
          "name": "_surveyid",
          "type": "uint256"
        },
        {
          "name": "_questionid",
          "type": "uint256"
        }
      ],
      "name": "getAnswers",
      "outputs": [
        {
          "name": "",
          "type": "bytes32[]"
        }
      ],
      "payable": false,
      "stateMutability": "view",
      "type": "function"
    },
    {
      "constant": false,
      "inputs": [
        {
          "name": "_surveyid",
          "type": "uint256"
        },
        {
          "name": "_questionid",
          "type": "uint256"
        },
        {
          "name": "_answer",
          "type": "bytes32"
        }
      ],
      "name": "answerQuestion",
      "outputs": [],
      "payable": true,
      "stateMutability": "payable",
      "type": "function"
    }
  ],
  "bytecode": "0x608060405260006001553480156200001657600080fd5b506040805190810160405280601781526020017f53757276657920526577617264696e672053797374656d00000000000000000081525060029080519060200190620000649291906200006b565b506200011a565b828054600181600116156101000203166002900490600052602060002090601f016020900481019282601f10620000ae57805160ff1916838001178555620000df565b82800160010185558215620000df579182015b82811115620000de578251825591602001919060010190620000c1565b5b509050620000ee9190620000f2565b5090565b6200011791905b8082111562000113576000816000905550600101620000f9565b5090565b90565b611c74806200012a6000396000f3fe60806040526004361061008e576000357c0100000000000000000000000000000000000000000000000000000000900463ffffffff16806306fdde03146100935780636e48c7fd1461012357806386e68b90146101f25780638f0fff3d146102f2578063c1a3eb121461038c578063c4e914a7146103e5578063c797b31e146104b7578063e804f4c0146104f9575b600080fd5b34801561009f57600080fd5b506100a8610524565b6040518080602001828103825283818151815260200191508051906020019080838360005b838110156100e85780820151818401526020810190506100cd565b50505050905090810190601f1680156101155780820380516001836020036101000a031916815260200191505b509250505060405180910390f35b34801561012f57600080fd5b506101f06004803603604081101561014657600080fd5b810190808035906020019064010000000081111561016357600080fd5b82018360208201111561017557600080fd5b8035906020019184602083028401116401000000008311171561019757600080fd5b919080806020026020016040519081016040528093929190818152602001838360200280828437600081840152601f19601f820116905080830192505050505050509192919290803590602001909291905050506105c2565b005b3480156101fe57600080fd5b5061022b6004803603602081101561021557600080fd5b810190808035906020019092919050505061081d565b60405180806020018673ffffffffffffffffffffffffffffffffffffffff1673ffffffffffffffffffffffffffffffffffffffff16815260200185815260200184151515158152602001838152602001828103825287818151815260200191508051906020019080838360005b838110156102b3578082015181840152602081019050610298565b50505050905090810190601f1680156102e05780820380516001836020036101000a031916815260200191505b50965050505050505060405180910390f35b3480156102fe57600080fd5b506103356004803603604081101561031557600080fd5b810190808035906020019092919080359060200190929190505050610918565b6040518080602001828103825283818151815260200191508051906020019060200280838360005b8381101561037857808201518184015260208101905061035d565b505050509050019250505060405180910390f35b34801561039857600080fd5b506103cf600480360360408110156103af57600080fd5b810190808035906020019092919080359060200190929190505050610be7565b6040518082815260200191505060405180910390f35b3480156103f157600080fd5b506104b56004803603604081101561040857600080fd5b810190808035906020019064010000000081111561042557600080fd5b82018360208201111561043757600080fd5b8035906020019184600183028401116401000000008311171561045957600080fd5b91908080601f016020809104026020016040519081016040528093929190818152602001838380828437600081840152601f19601f82011690508083019250505050505050919291929080359060200190929190505050610d2a565b005b6104f7600480360360608110156104cd57600080fd5b81019080803590602001909291908035906020019092919080359060200190929190505050611107565b005b34801561050557600080fd5b5061050e611949565b6040518082815260200191505060405180910390f35b60028054600181600116156101000203166002900480601f0160208091040260200160405190810160405280929190818152602001828054600181600116156101000203166002900480156105ba5780601f1061058f576101008083540402835291602001916105ba565b820191906000526020600020905b81548152906001019060200180831161059d57829003601f168201915b505050505081565b806001548110151561063c576040517f08c379a00000000000000000000000000000000000000000000000000000000081526004018080602001828103825260138152602001807f5375727665792073686f756c642065786973740000000000000000000000000081525060200191505060405180910390fd5b6001151560008083815260200190815260200160002060030160009054906101000a900460ff1615151415156106da576040517f08c379a00000000000000000000000000000000000000000000000000000000081526004018080602001828103825260108152602001807f53757276657920697320636c6f7365640000000000000000000000000000000081525060200191505060405180910390fd5b813373ffffffffffffffffffffffffffffffffffffffff1660008083815260200190815260200160002060010160009054906101000a900473ffffffffffffffffffffffffffffffffffffffff1673ffffffffffffffffffffffffffffffffffffffff161415156107d9576040517f08c379a00000000000000000000000000000000000000000000000000000000081526004018080602001828103825260298152602001807f4f6e6c7920636f6e647563746f722063616e2075736520746869732066756e6381526020017f74696f6e616c697479000000000000000000000000000000000000000000000081525060400191505060405180910390fd5b60008090505b84518110156108165761080985828151811015156107f957fe5b906020019060200201518561194f565b80806001019150506107df565b5050505050565b6000602052806000526040600020600091509050806000018054600181600116156101000203166002900480601f0160208091040260200160405190810160405280929190818152602001828054600181600116156101000203166002900480156108c95780601f1061089e576101008083540402835291602001916108c9565b820191906000526020600020905b8154815290600101906020018083116108ac57829003601f168201915b5050505050908060010160009054906101000a900473ffffffffffffffffffffffffffffffffffffffff16908060020154908060030160009054906101000a900460ff16908060040154905085565b6060828260015482101515610995576040517f08c379a00000000000000000000000000000000000000000000000000000000081526004018080602001828103825260138152602001807f5375727665792073686f756c642065786973740000000000000000000000000081525060200191505060405180910390fd5b6000808381526020019081526020016000206002015481101515610a21576040517f08c379a000000000000000000000000000000000000000000000000000000000815260040180806020018281038252601f8152602001807f5175657374696f6e2073686f756c6420657869737420696e207375727665790081525060200191505060405180910390fd5b843373ffffffffffffffffffffffffffffffffffffffff1660008083815260200190815260200160002060010160009054906101000a900473ffffffffffffffffffffffffffffffffffffffff1673ffffffffffffffffffffffffffffffffffffffff16141515610b20576040517f08c379a00000000000000000000000000000000000000000000000000000000081526004018080602001828103825260298152602001807f4f6e6c7920636f6e647563746f722063616e2075736520746869732066756e6381526020017f74696f6e616c697479000000000000000000000000000000000000000000000081525060400191505060405180910390fd5b600080600088815260200190815260200160002060050160008781526020019081526020016000209050600081600101549050606081604051908082528060200260200182016040528015610b845781602001602082028038833980820191505090505b50905060008090505b82811015610bd757836002016000828152602001908152602001600020600101548282815181101515610bbc57fe5b90602001906020020181815250508080600101915050610b8d565b5080965050505050505092915050565b6000828260015482101515610c64576040517f08c379a00000000000000000000000000000000000000000000000000000000081526004018080602001828103825260138152602001807f5375727665792073686f756c642065786973740000000000000000000000000081525060200191505060405180910390fd5b6000808381526020019081526020016000206002015481101515610cf0576040517f08c379a000000000000000000000000000000000000000000000000000000000815260040180806020018281038252601f8152602001807f5175657374696f6e2073686f756c6420657869737420696e207375727665790081525060200191505060405180910390fd5b6000806000878152602001908152602001600020905080600501600086815260200190815260200160002060000154935050505092915050565b6000825114151515610da4576040517f08c379a000000000000000000000000000000000000000000000000000000000815260040180806020018281038252601d8152602001807f537572766579207469746c652063616e206e6f7420626520656d70747900000081525060200191505060405180910390fd5b60a0604051908101604052808381526020013373ffffffffffffffffffffffffffffffffffffffff168152602001600081526020016001151581526020018281525060008060015481526020019081526020016000206000820151816000019080519060200190610e16929190611b1c565b5060208201518160010160006101000a81548173ffffffffffffffffffffffffffffffffffffffff021916908373ffffffffffffffffffffffffffffffffffffffff1602179055506040820151816002015560608201518160030160006101000a81548160ff0219169083151502179055506080820151816004015590505060008060006001548152602001908152602001600020905060408051908101604052807f4920616d206e6f74207573696e67206120626f74000000000000000000000000815260200160008152508160050160008081526020019081526020016000206000820151816000015560208201518160010155905050806002016000815480929190600101919050555080600080600154815260200190815260200160002060008201816000019080546001816001161561010002031660029004610f5f929190611b9c565b506001820160009054906101000a900473ffffffffffffffffffffffffffffffffffffffff168160010160006101000a81548173ffffffffffffffffffffffffffffffffffffffff021916908373ffffffffffffffffffffffffffffffffffffffff160217905550600282015481600201556003820160009054906101000a900460ff168160030160006101000a81548160ff021916908315150217905550600482015481600401559050506001600081548092919060010191905055507f21b2310f64cc929690aadabb0bb1a1be1f37d9da8c0a0423a0a664b0ab444efe833360018060405180806020018573ffffffffffffffffffffffffffffffffffffffff1673ffffffffffffffffffffffffffffffffffffffff16815260200184815260200183151515158152602001828103825286818151815260200191508051906020019080838360005b838110156110c55780820151818401526020810190506110aa565b50505050905090810190601f1680156110f25780820380516001836020036101000a031916815260200191505b509550505050505060405180910390a1505050565b828260015482101515611182576040517f08c379a00000000000000000000000000000000000000000000000000000000081526004018080602001828103825260138152602001807f5375727665792073686f756c642065786973740000000000000000000000000081525060200191505060405180910390fd5b6001151560008084815260200190815260200160002060030160009054906101000a900460ff161515141515611220576040517f08c379a00000000000000000000000000000000000000000000000000000000081526004018080602001828103825260108152602001807f53757276657920697320636c6f7365640000000000000000000000000000000081525060200191505060405180910390fd5b60008083815260200190815260200160002060020154811015156112ac576040517f08c379a000000000000000000000000000000000000000000000000000000000815260040180806020018281038252601f8152602001807f5175657374696f6e2073686f756c6420657869737420696e207375727665790081525060200191505060405180910390fd5b3373ffffffffffffffffffffffffffffffffffffffff1660008084815260200190815260200160002060010160009054906101000a900473ffffffffffffffffffffffffffffffffffffffff1673ffffffffffffffffffffffffffffffffffffffff16141515156113ab576040517f08c379a000000000000000000000000000000000000000000000000000000000815260040180806020018281038252602c8152602001807f4f6e6c79207061727469636970616e74732063616e207573652074686973206681526020017f756e6374696f6e616c697479000000000000000000000000000000000000000081525060400191505060405180910390fd5b848460008060008481526020019081526020016000209050818160060160003373ffffffffffffffffffffffffffffffffffffffff1673ffffffffffffffffffffffffffffffffffffffff168152602001908152602001600020541415156114a1576040517f08c379a000000000000000000000000000000000000000000000000000000000815260040180806020018281038252602b8152602001807f43616e206f6e6c7920616e737765722066726f6d206c6173742071756573746981526020017f6f6e20616e73776572656400000000000000000000000000000000000000000081525060400191505060405180910390fd5b60008060008a8152602001908152602001600020905060008160050160008a8152602001908152602001600020905060008914156115d157806000015488141515611554576040517f08c379a00000000000000000000000000000000000000000000000000000000081526004018080602001828103825260168152602001807f43617074636861206973206e6f7420636f72726563740000000000000000000081525060200191505060405180910390fd5b60c8341415156115cc576040517f08c379a00000000000000000000000000000000000000000000000000000000081526004018080602001828103825260158152602001807f50726f7669646520696e697469616c207072696365000000000000000000000081525060200191505060405180910390fd5b61162d565b600182600201540389141561162c573373ffffffffffffffffffffffffffffffffffffffff166108fc83600401549081150290604051600060405180830381858888f1935050505015801561162a573d6000803e3d6000fd5b505b5b60408051908101604052803373ffffffffffffffffffffffffffffffffffffffff168152602001898152508160020160008360010154815260200190815260200160002060008201518160000160006101000a81548173ffffffffffffffffffffffffffffffffffffffff021916908373ffffffffffffffffffffffffffffffffffffffff160217905550602082015181600101559050508060010160008154809291906001019190505550808260050160008b8152602001908152602001600020600082015481600001556001820154816001015590505060018260060160003373ffffffffffffffffffffffffffffffffffffffff1673ffffffffffffffffffffffffffffffffffffffff16815260200190815260200160002060008282540192505081905550816000808c815260200190815260200160002060008201816000019080546001816001161561010002031660029004611790929190611b9c565b506001820160009054906101000a900473ffffffffffffffffffffffffffffffffffffffff168160010160006101000a81548173ffffffffffffffffffffffffffffffffffffffff021916908373ffffffffffffffffffffffffffffffffffffffff160217905550600282015481600201556003820160009054906101000a900460ff168160030160006101000a81548160ff021916908315150217905550600482015481600401559050507f39eaf6a8fec99688e37c31d0b4488731f43404e83c7b286e5d2717d4bac2c1358a8a8460050160008d815260200190815260200160002060020160006001866001015403815260200190815260200160002060000160009054906101000a900473ffffffffffffffffffffffffffffffffffffffff168560050160008e815260200190815260200160002060020160006001876001015403815260200190815260200160002060010154604051808581526020018481526020018373ffffffffffffffffffffffffffffffffffffffff1673ffffffffffffffffffffffffffffffffffffffff16815260200182815260200194505050505060405180910390a150505050505050505050565b60015481565b6000806000838152602001908152602001600020905060408051908101604052808481526020016000815250816005016000836002015481526020019081526020016000206000820151816000015560208201518160010155905050806002016000815480929190600101919050555080600080848152602001908152602001600020600082018160000190805460018160011615610100020316600290046119f9929190611b9c565b506001820160009054906101000a900473ffffffffffffffffffffffffffffffffffffffff168160010160006101000a81548173ffffffffffffffffffffffffffffffffffffffff021916908373ffffffffffffffffffffffffffffffffffffffff160217905550600282015481600201556003820160009054906101000a900460ff168160030160006101000a81548160ff021916908315150217905550600482015481600401559050507fd19d6c190f34df0b3e30c6c2b2acd40da46e6e43ee33ed45dea9ae31af9fb1a28382600501600060018560020154038152602001908152602001600020600101548484600201546040518085815260200184815260200183815260200182815260200194505050505060405180910390a1505050565b828054600181600116156101000203166002900490600052602060002090601f016020900481019282601f10611b5d57805160ff1916838001178555611b8b565b82800160010185558215611b8b579182015b82811115611b8a578251825591602001919060010190611b6f565b5b509050611b989190611c23565b5090565b828054600181600116156101000203166002900490600052602060002090601f016020900481019282601f10611bd55780548555611c12565b82800160010185558215611c1257600052602060002091601f016020900482015b82811115611c11578254825591600101919060010190611bf6565b5b509050611c1f9190611c23565b5090565b611c4591905b80821115611c41576000816000905550600101611c29565b5090565b9056fea165627a7a72305820bfa99f46a901fa07c66da00e97195ff123f782c15b67aa9132c77674d80e50af0029",
  "source": "pragma solidity ^0.5.0;\r\n\r\ncontract SurveyReward {\r\n    mapping(uint256 => Survey) public surveys;\r\n    uint256 public surveyCount = 0;\r\n    string public name;\r\n\r\n    struct Survey {\r\n        string title;\r\n        address payable conductor;\r\n        uint256 questionCount;\r\n        bool open;\r\n        uint256 reward;\r\n        mapping(uint256 => Question) questions;\r\n        mapping(address => uint256) lastLeft;\r\n    }\r\n\r\n    event SurveyCreation(\r\n        string title,\r\n        address payable conductor,\r\n        uint256 questionCount,\r\n        bool open\r\n    );\r\n\r\n    struct Question {\r\n        bytes32 text;\r\n        uint256 answerCount;\r\n        mapping(uint256 => Answer) answers;\r\n    }\r\n\r\n    struct Answer {\r\n        address payable participant;\r\n        bytes32 text;\r\n    }    \r\n\r\n    event QuestionAdditionToSurvey(\r\n        bytes32 text,\r\n        uint256 answerCount,\r\n        uint256 surveyid,\r\n        uint256 questionCount\r\n    );\r\n\r\n    event QuestionAnswered(\r\n        uint256 surveyid,\r\n        uint256 questionid,\r\n        address participant,\r\n        bytes32 answer\r\n    );\r\n\r\n    constructor() public {\r\n        name = \"Survey Rewarding System\";\r\n    }\r\n\r\n    modifier surveyAvailable(uint256 _surveyid){\r\n        require(_surveyid < surveyCount, \"Survey should exist\");\r\n        require(surveys[_surveyid].open == true,\"Survey is closed\");\r\n        _;        \r\n    }\r\n\r\n    modifier questionAvailable(uint256 _surveyid, uint256 _questionid){\r\n        require(_surveyid < surveyCount, \"Survey should exist\");\r\n        require(_questionid < surveys[_surveyid].questionCount,\"Question should exist in survey\");\r\n        _;\r\n    }\r\n    \r\n    modifier questionAnswarable(uint256 _surveyid, uint256 _questionid){\r\n        require(_surveyid < surveyCount, \"Survey should exist\");\r\n        require(surveys[_surveyid].open == true,\"Survey is closed\");\r\n        require(_questionid < surveys[_surveyid].questionCount,\"Question should exist in survey\");\r\n        require(surveys[_surveyid].conductor != msg.sender,\"Only participants can use this functionality\");\r\n        _;\r\n    }\r\n\r\n    modifier conductorOnly(uint256 _surveyid){\r\n        require(surveys[_surveyid].conductor == msg.sender,\"Only conductor can use this functionality\");\r\n        _;\r\n    }\r\n\r\n    modifier participantOnly(uint256 _surveyid){\r\n        require(surveys[_surveyid].conductor != msg.sender,\"Only participants can use this functionality\");\r\n        _;\r\n    }\r\n\r\n    modifier checkpointSatisfies(uint256 _surveyid,uint256 _questionid){\r\n        Survey storage _survey = surveys[_surveyid];\r\n        require(_survey.lastLeft[msg.sender] == _questionid,\"Can only answer from last question answered\");\r\n        _;\r\n    }\r\n\r\n    function createSurvey(string memory _title,uint256 _reward) public {\r\n        require(bytes(_title).length != 0, \"Survey title can not be empty\");\r\n        surveys[surveyCount] = Survey(_title, msg.sender, 0, true,_reward);\r\n        Survey storage _survey = surveys[surveyCount];\r\n        _survey.questions[0] = Question(\"I am not using a bot\",0);\r\n        _survey.questionCount++;\r\n        surveys[surveyCount] = _survey;\r\n        surveyCount++;\r\n        emit SurveyCreation(_title, msg.sender, 1, true);\r\n    }\r\n\r\n    function createQuestion(bytes32 _text, uint256 _surveyid) private\r\n    {\r\n        Survey storage _survey = surveys[_surveyid];\r\n        _survey.questions[_survey.questionCount] = Question(_text, 0);\r\n        _survey.questionCount++;\r\n        surveys[_surveyid] = _survey;\r\n        emit QuestionAdditionToSurvey(\r\n            _text,\r\n            _survey.questions[_survey.questionCount - 1].answerCount,\r\n            _surveyid,\r\n            _survey.questionCount\r\n        );\r\n    }\r\n\r\n    function appendQuestions(bytes32[] memory questions, uint256 _surveyid) surveyAvailable(_surveyid) conductorOnly(_surveyid) public{\r\n        for(uint i = 0; i < questions.length ; i++){\r\n            createQuestion(questions[i], _surveyid);\r\n        }\r\n    }\r\n\r\n    function getQuestionFromSurvey(uint256 _surveyid, uint256 _questionid) public view \r\n    questionAvailable(_surveyid,_questionid)\r\n    returns(bytes32){\r\n        Survey storage _survey = surveys[_surveyid];\r\n        return _survey.questions[_questionid].text;\r\n    }\r\n\r\n    function getAnswers(uint256 _surveyid, uint256 _questionid) public view \r\n    questionAvailable(_surveyid,_questionid)\r\n    conductorOnly(_surveyid) returns(bytes32[] memory) {\r\n        Question storage _question = surveys[_surveyid].questions[_questionid];\r\n        uint256 _answerCount = _question.answerCount;\r\n        bytes32[] memory _answers = new bytes32[](_answerCount);\r\n        for(uint i = 0 ; i < _answerCount ; i++){\r\n            _answers[i] = _question.answers[i].text;\r\n        }\r\n        return _answers;\r\n    }\r\n\r\n    function answerQuestion(uint256 _surveyid, uint256 _questionid, bytes32 _answer) public payable\r\n    questionAnswarable(_surveyid,_questionid)\r\n    checkpointSatisfies(_surveyid,_questionid){\r\n\r\n        Survey storage _survey = surveys[_surveyid];\r\n        Question storage _question = _survey.questions[_questionid];\r\n\r\n        if(_questionid == 0){\r\n            require(_answer == _question.text,\"Captcha is not correct\");\r\n            require(msg.value == 200,\"Provide initial price\");\r\n        }\r\n\r\n        else if(_questionid == _survey.questionCount-1){\r\n            msg.sender.transfer(_survey.reward);\r\n        }\r\n\r\n        _question.answers[_question.answerCount] = Answer(msg.sender,_answer);\r\n        _question.answerCount++;\r\n        _survey.questions[_questionid] = _question;\r\n        _survey.lastLeft[msg.sender] += 1;\r\n        surveys[_surveyid] = _survey;\r\n\r\n        emit QuestionAnswered(_surveyid, _questionid, \r\n        _survey.questions[_questionid].answers[_question.answerCount - 1].participant, \r\n        _survey.questions[_questionid].answers[_question.answerCount - 1].text);\r\n    }\r\n\r\n}\r\n",
  "sourcePath": "C:/Users/canbe/Desktop/Canberk/CAREER/survey_reward/src/contracts/SurveyReward.sol",
  "compiler": {
    "name": "solc",
    "version": "0.5.0+commit.1d4f565a.Emscripten.clang"
  },
  "schemaVersion": "3.0.1",
  "updatedAt": "2021-05-02T18:59:09.044Z",
  "devdoc": {
    "methods": {}
  },
  "userdoc": {
    "methods": {}
  }
}